:20000000D03D00200D6D000001CA011001CA011001CA011001CA011001CA011001CA011011
:1C00200001CA011001CA011001CA011001CA011001CA011001CA01103FCA011082
:20003C00F0B52B4D05F12C0158C9ADF11C0D02AA58C20AC94FF0805682E80A0047688468BF
:20005C00D6F8D001C16820688847216821488A6B10408863206840F2F271416497F83C00B6
:20007C0097F83D10C0100DEB80008068084321684863684600F032F8D6F8D001397F46680C
:20009C0005EB8101BA698B68797F206855F821101943BB7F05EB8305AB690B430199B047BD
:2000BC000D490A1F106840F010001060086840F001000860A07D0027FF2802D0E07DFF28B3
:2000DC0000D11FB1086840F44040086007B0F0BD408E00000DF8FFFF30100040DFF800F05B
:0400FC00F9BF011037
:200100003C000000000000000000000034010000000000000000000001000000000000006D
:1C01200000000000000000000000000001000000000000000800000000000000BA
:20013C00340000000000000000000000680100000000000000000000010000000000000005
:14015C00010000000000000000000000080000000000000086
:2001700030000000000000000000000098010000040000000000000001000000FFFFFFFFA5
:10019000FF00000001000000080000000000000057
:2001A0002C0000000000000000000000C4010000040000000000000001000000FFFFFFFF4D
:0C01C000FFFFFFFF08000000000000002F
:2001CC0034050000E401000099A1011095A70110A5C2011009B2011045B80110000000000B
:0801EC00000000002F000000DC
:2001F400280000000000000000000000140200000000000000000000FFFFFFFF00000000B1
:080214000800000000000000DA
:20021C00300500003002000069C201106DC101101FC2011095BA011000000000000000008E
:04023C002D00000091
:20024000300500005402000075C20110A9B601109DBF011049B601100000000000000000DE
:040260002E0000006C
:200264002400000000000000000000008002000000000000000000000000000008000000CC
:040284000000000076
:20028800240000000000000000000000A40200000000000000000000000000000800000084
:0402A8000000000052
:2002AC00240000000000000000000000C8020000000000000100000000000000080000003B
:0402CC00000000002E
:2002D0000000000020130020040000000000000000000000200000007001000030000000F6
:2002F0001C020000281300200400000000000000000000000C000000300400001800000019
:2003100040020000301300200400000000000000000000002400000048040000180000009C
:20033000000000003813002004000000000000000000000010000000A00100002C00000061
:20035000CC010000401300200400000000000000000000002000000064020000240000009F
:20037000FFFFFFFF481300200400000000000000000000002800000088020000240000001C
:20039000FFFFFFFF50130020040000000000000000000000580000003C0100003400000001
:2003B000FFFFFFFF5813002004000000000000000000000010000000600400001800000016
:2003D000FFFFFFFF601300200400000000000000000000001C000000AC020000240000008C
:2003F000FFFFFFFF6813002004000000000000000000000038000000F401000028000000FD
:20041000FFFFFFFF7013002004000000000000000000000054000000000100003C00000098
:1804300018000000000000000000000040040000080000000000000050
:1804480018000000000000000000000058040000080000000000000020
:18046000180000000000000000000000700400000800000000000000F0
:08047800010000007C9000006F
:0404800006F0DEB8EC
:040484000100000073
:0404880000000E0062
:04048C0000000F005D
:040490003200000036
:040494000100000063
:04049800C01200206E
:04049C00000200005A
:0404A0000000000058
:0404A40001CA011078
:0404A8000000000050
:0404AC00000000004C
:0404B0000800000040
:0404B4000000230021
:0404B800A811002067
:0404BC00010000003B
:0404C000D81200202E
:0404C400080000002C
:0404C8000000000030
:0404CC00000000002C
:0404D0000000000028
:0404D4000000000024
:0404D8000000000020
:0404DC00010000001B
:0404E00010120020D6
:0404E400060000000E
:0404E800010000000F
:0404EC00CC10002010
:0404F0000000000008
:0404F4000000000004
:0404F80000020000FE
:0404FC0000000000FC
:02050000704742
:020502002900CE
:020504000100F4
:020506002500CE
:020508002D00C4
:02050A002E00C1
:02050C002F00BE
:02050E000100EA
:0105100001E9
:080514000300000050900000FC
:08051C000000000000000000D7
:0405240000000100D2
:0405280000000300CC
:04052C0087C401106F
:04053000380500008A
:040534003805000086
:0405380000000000BF
:04053C00900000002B
:040540009000000027
:0405440000000000B3
:04054800D8120020A5
:04054C009B87000089
:040550002000000087
:04055400F08F000024
:04055800288F0000E8
:04055C000DC30110BA
:040560001B6E00000E
:040564001B70000008
:0405680099C801101D
:04056C009BC8011017
:040570000000000087
:0405740013900000E0
:04057800108E0000E1
:04057C00288E0000C5
:04058000F88D0000F2
:0205840008006D
:0205860009006A
:02058800010070
:02058A0000006F
:01058C00016D
:040590000000000067
:040594000000000063
:04059800000000005F
:04059C00000000005B
:0405A000258B0000A7
:0405A4001D730000C3
:0405A800618000006E
:0405AC00D9760000FC
:0405B000D5770000FB
:0405B400A97A000020
:0405B8002D5C0000B6
:0405BC00178900009B
:0405C0008162000054
:0405C40011C8011049
:0405C80021C8011035
:0405CC000800000023
:0405D0002400000003
:0405D400180000000B
:0405D80028000000F7
:0405DC0020000000FB
:0405E0003C000000DB
:0405E4000C00000007
:0405E80034000000DB
:2005EC002DE9F04F0820ADF16C0DADF820000120ADF8220008A807F049F9DF4C9DF82400E1
:20060C0020700A9804F174050021A062284608F037FB4FF47A72D749E56204F1A40000251F
:20062C002B46009506F092F91520A02107F0E6F816204FF4A07107F0E1F819204FF42F71E6
:20064C0007F0DCF81A20294607F0D8F8D8494FF47A622B4604F1C800009506F077F9D54EC7
:20066C0006F1180006F10C0104F0BAFCD249B06008F009FAD14F4FF4E0213A46521E07F040
:20068C001DFBB0684FF4E0213A4607F017FBCC4FB0684FF0C0513A46521E07F00FFBB068C5
:2006AC004FF0C0513A4607F009FBD6490095C8222B4606F1240006F049F90327D2488DF838
:2006CC00607018A970604FF0004006F0FDF9A06128B94FF0804018A906F0F6F9A061CD48A5
:2006EC002E464FF6FF79CA4DA4F83A9002210660A81C017008464FF47A6107F07FF838462A
:20070C004FF47A6107F07AF8C049384606F034FDB04644F6C740129001278DF85D603B46D4
:20072C008DF85E8004218DF85C7012AA8DF85F304FF4816006F040FE4FF4806017AA394649
:20074C0006F03AFE40F202400DF15D02394606F033FE40F203400DF15E02394606F02CFE76
:20076C0040F206400DF15F02394606F025FE082007F082FC071C09D00221112208F0BEF861
:20078C0007F08AFCC94A394606F032FD26780A2007F072FC071C0CD00221122208F0AEF8F8
:2007AC00304607F0EBFB387207F076FC394607F059FA032006F056FF042006F053FF04F12F
:2007CC00300095F801A0AE78A860182007F054FC071C19D00421424607F0B8FF504607F00E
:2007EC00CDFB387208207872BE7205F11603FB6005F126023A6105F10C01796107F04CFCFA
:20080C00BB4A394606F0F4FC0C2007F035FC071C0BD00121042208F071F804F13C00B8601E
:20082C0007F03AFC394607F01DFA0120102106F033FF0220102106F02FFFC246CDF800A094
:20084C00CDF804A0CDF808A0CDF80CA0CDF810A0A069C8A34146424607F06AFB04F5907BED
:20086C000820ADF818000A27ADF81A704FF0FF36079606A807F00AF8002840F0CE83504630
:20088C0011900827ADF82C700926ADF82E600BA806F0FCFF0D9D0028119540F0BE83BDF897
:2008AC003000102807D120789DF83210884202D1284600F033FC1198002800F0AE832846F3
:2008CC0007F0EAFDA9E3E06A054608F0D5F9854208BF574602D0876807F0C6FD38460028FB
:2008EC00199000F09A833D46E1892888801E00F03C83801E00F0E082001F00F0B5820838D6
:20090C0006D0103800F08083203800F0748381E32079AD78002800F09F82401E00F0B181A0
:20092C00801E1AD0401E40F07583E0782909C0F09382012800F06E836778002F00F06A8359
:20094C00A178A0698F4200F302820221072207F0E3FF57465646554660E2E0792A0941D346
:20096C00A669021C0AD0521E2CD0521E1DD0521E17D037E009830000080200200120E07105
:20098C00084607F0E9FD50B9B9A35046009057460197524602925146039104971DE0B0A31E
:2009AC00F3E784F807A0AAA3EFE70320A5A30BE07D85000018110020957B00000E000580C7
:2009CC000E00001002209BA3E071574600975246019251460291039704923046072107F0EE
:2009EC00A7FAE0796909C0F01583E589A369002800F0EA80401E7DD0401E0DD0401E00F007
:200A0C000A8107E3CD8600004B8A0000B18A00001C0A00203C0200202079A68A032840F02A
:200A2C00F982002E00F0F682A07A012800F0F282C048627A21780768002A39D02A46002F34
:200A4C0008BF504606D050460090122301200146B847A36900280F9000F0DC825046574641
:200A6C00009056465546019706215246029618460395ACA3049707F05BFA0126A08A0F998F
:200A8C00ADF83A60257AADF8380012220D700EA88DF840A021788DF841A005F0A3FF051C0C
:200AAC001FD00EA8122107F0AFFC17E0DF880000ADF8506014A80A2205F094FF05465046AC
:200ACC00009057460197564602965346039352460492A0690621C2A307F02AFA002D40F0A7
:200AEC0099820121607AA17280F00100607291E2C98A0000284607F02FFD002840D118468F
:200B0C000521524607F008FFE089054606F020FA50B3284607F020FD071C1AD1B448C08872
:200B2C004FF6FF7181421FD1242007F0C5FAB0490860C8B151460091CA495246534605F00C
:200B4C0005FFAB484FF47A760146C5800F468E8005E0386807F0DAFF4FF47A70B880386816
:200B6C004FF47A7106F0B8FB57463DA3564655461EE0C046424C452043656E7472616C001E
:200B8C00284606F0BDFA5046009057460197564602965546039553460493A0690521524675
:200BAC00C1A307F0C5F9E079012840F0338230A30721504600900197029603955246049292
:200BCC00A06907F0B5F925E250465746009056465546019704215246029618460395AEA326
:200BEC00049707F0A5F9A07960B1401E40F01282A0204FF4A0714FF42F7206F0F7FB84F811
:200C0C0006A007E25020A0214FF4167206F0EEFB0120A071FEE106F02FF805202071A06971
:200C2C000121072207F078FE5746564655460121CAA3BEE73E526561642F777269746520B4
:200C4C00726571003E446973636F6E6E656374003E506172616D207570642072657100C038
:200C6C003E53746F70205253534920706F6C6C003E5374617274205253534920706F6C6CC8
:200C8C0000C0E078290957D26809C0F0C381A778002F00F0E4806678002E00F0BB8178011D
:200CAC00A0EB8700584410F8089CC51FBC480226267107F029FF06F07DFF8DF853A08DF899
:200CCC0054A08DF852008DF8559029680DF156000160AF888780B54A0DF15200092106F0E0
:200CEC000FFDA0690421072207F016FEA669284605F06AFD57460346504600905546019762
:200D0C0002210295524603973046049507F010F9504600905646019704210295B7A30396C3
:200D2C004CE7C0465772697465207265712073656E7400C000130020012800F06B8167784A
:200D4C00002F00F06781A178A0698F4252DD491C5746009156465546019752460296B8A371
:200D6C0003950121049707F0E3F8A178A5694801A0EB81005844153005F026FD03465046EC
:200D8C000090019602210297524603962846049707F0CEF8A1784801A0EB810058440090D3
:200DAC00019602975546039553460493A06952460321A2A307F0BCF8504600900196029789
:200DCC00039553460493A06907215246CAA307F0AFF801202071A078401CA0701AE1C04634
:200DEC0052656164207265712073656E7400C0463C0200200121072207F08EFD6078009090
:200E0C0057460197564602965546039553460493A06901215246ABA307F08AF8504600904A
:200E2C0001970296039553460493A06906215246ADA307F07DF8504600900197029603953C
:200E4C0053460493A06907215246A3A307F070F8012020714046C0E76809C0F0DB8004F099
:200E6C0021FBD7E01D8700006D68E8884FF6FF71814200F0CF8006F06BF8002800F0CA8038
:200E8C002868A98806F028FAE988A04B41F20540524606F09DF8BDE0506172616D207570E3
:200EAC00642072657100C046525353492043616E63656C6C656400C06868564689460778FE
:200ECC001396082007F0D8F8061C0CD005210A4607F03CFC07F0E0F813A904238C4A0091B2
:200EEC00314606F0A3F9139E8A488A49B6FBF0F04843361ADFB15046009057460197534697
:200F0C0002935246039251460491A0696AA3042107F00EF80096504601900297534603931A
:200F2C0052460492A069052162A307F001F8102007F0A2F8071C0ED00121132207F0DEFC69
:200F4C00A7F8089087F80AA0FE6007F0A5F8724A394606F04DF968684AE0C0464469736339
:200F6C006F6E6E656374696E67006A68AF78A0691178002F2BD0012F1AD0022F12D0032F8C
:200F8C0035D151B947A351460091574601975646029652460392049724E03DA30DE0C0461B
:200FAC00D002002019BB36A3EDE7C046CF8A0000002908BF2EA3E6D028A300915146019157
:200FCC005746029756460396524604920AE0514600915746019756460296CDF80C801BA3E2
:200FEC00CDF810800621524606F0A2FF6A68104607F02EFA0EE005F03FFE0BE0436F6E6E5A
:20100C00656374696E6700C0686800F087F8686807F042FA199807F01BFAE06A07F028FE24
:20102C0000283FF450ACA0894108FFF419AC20F00100A08106F058FE12E4C046257300C051
:20104C0044657669636520256400C04650616972696E672073746172746564005061697218
:20106C00696E67206661696C3A20256400C046C050616972696E67207375636365737300DE
:20108C00426F6E64696E67207375636365737300426E642073617665206661696C3A20254C
:2010AC006400C046426F6E642073617665207375636300C0256400C050617373636F64655F
:2010CC003A00C0464465766963657320666F756E6420256400C046C03E5249474854207406
:2010EC006F207363616E00C03C4C45465420746F2062726F777365003E5249474854207484
:20110C006F20636F6E6E65637400C046678A0000ED8A000040420F00D18800002DE9F04F9D
:20112C000446C24D20782979ADF1140D913800F0B0821F3800F02C82203840F0C382A0788C
:20114C006E78D5F818800FF2D429002800F0E281401E00F02481001F0FF2B42A00F09F80BF
:20116C00401E00F09C81401E7BD0801F40F0AA822779601D022E804617DA2EB105F2351134
:20118C00062206F031FF80B141460B687001A0EB86002A1802F5907202F115000360898891
:2011AC008180731C1775DEB26E70002E00F08A8205F5907905F2351A04F1050BB046002506
:2011CC0058465146062206F00FFF002841D12269237B266910469918491E1B185B1EB342A1
:2011EC0037D912F8017B87B11678082E03D0092E18BF3A4409D17F1E521CFFB2022F01DB4F
:20120C00914205D8012F08BF521C9142E9D820E010F8017BD7B10178082918BF092916D173
:20122C006A017F1E401CA2EB850209EB0201CF76002183420DD98F4209DD10F8016B02EB0A
:20124C00010C491CC9B209F80C60F2E738188342DED8B8F101080AF11C0A05F10105AFD135
:20126C0030E2032940F02E82E07870B9E08806F053FFA6A20CCA02F049FF05F063FD0090D6
:20128C00BBA300200246019003E0009000220192BBA30292039204210492404610E2607831
:2012AC00002861D10320678928714FF0010BEF81A88A85F80AB030B905F1A40007F024FC5E
:2012CC006E78D5F818802EB904F1040A05F59079002412E004F1040A05F5907905F235176B
:2012EC00002450463946062206F07EFE28B1761E07F11C0704F10104F3D14046594607227B
:20130C0007F00AFB6001A0EB840048440090002701973C46029403940494A869594622461B
:20132C00BAA73B4606F004FEAE69504605F04CFA0090022101943B4602942246039430460B
:20134C00049406F0F5FD00940194029403940494A869B7A30321224606F0EAFDB7A3EC7188
:20136C00224607211046A5E14FF6FE70E88100262E710421324640466E7107F0CDFA0096BE
:20138C000196029603960496A869B9A30221324606F0CEFD6078534603210090DDE0002410
:2013AC00EC70404601210722AC7007F0B5FA68780090274601970297039726460496A86973
:2013CC00AFA301213A4606F0B3FD04202871687870BB00970197029703970497A869BBA333
:2013EC000821324606F0A4FDE86907213246044605F056FF01222046062105F051FF2C6A99
:20140C0032460C21204605F04BFF012238E0C046526561736F6E3A20256400C03E5249470A
:20142C00485420746F207363616E00C00802002000970197029703970494A869A9A30621D4
:20144C003A4606F075FD00970197029703970497A869A8A30821324606F06AFDE8690721C8
:20146C000122044605F01CFF32462046062105F017FF2C6A01220C21204605F011FF32460A
:20148C0020460F2105F00CFF3A4600920192029203920492A8694B4607218046FDE64FF68E
:2014AC00FE70E88100262E71AE826E71A088AE7205F026FEA8690121072207F02DFA37461D
:2014CC0000970197029703970497A8698EA30121324606F02DFDA0790090019734460294B6
:2014EC0003940494A869534602213A4606F020FD00943A460192029203920492A8694B4649
:20150C00072106F015FDEE71DCE0C046000000000000F43F60890026E882374600967EA38E
:20152C00019731460297324603974046049706F0FFFCAE69E01C05F047F93C460097034629
:20154C000194012102943A4603943046049406F0EFFC3E4673A30221009634460194029434
:20156C0003940494A869324606F0E2FC4B46F7E65061725570643A202564206D7300C04630
:20158C00506172616D206572726F723A20256400032966D16178A869162957D021790B29A0
:2015AC002CD0012902D1217A0A2927D02179132916D0012902D1227A122A11D07E290BD06D
:2015CC007F2906D0687900284BD0204602F030F947E0228956A301E0227A59A3032138E05C
:2015EC00012907D0297A5AA3491CC9B22972491EC9B20FE0217B5AA31A4605E02179012950
:20160C0006D0E16809785AA2134603E0257300C0217B5BA30091002101910A460292039237
:20162C000621049206F084FC0020A87219E0C046436F6E6E656374656400C0463E50617238
:20164C00616D207570642072657100C0227950A3062100920022019202920392049206F06E
:20166C0067FC217904F1080006F0CEFE2AE0C046436F6E6E656374204661696C656400C0A3
:20168C004465766963657320666F756E6420256400C060780E2815D1A08841F2054282427C
:2016AC0010D103290ED1A06890F9030000223DA30521404200900192029203920492A86901
:2016CC0006F036FC05B0BDE8F08FC046547261636B6572206973206F7574206F66207261CF
:2016EC006E6765003C4C45465420746F2062726F77736500547261636B6572206973206937
:20170C006E2072616E676500446973636F6E6E656374656400C046C0424C452043656E740C
:20172C0072616C00496E697469616C697A6564004D54552053697A653A20256400C046C08E
:20174C0046432056696F6C617465643A2025640057726974652073656E743A20256400C031
:20176C005772697465204572726F7220256400C052656164207273703A20256400C046C025
:20178C0052656164204572726F7220256400C04641545420527370206472706564202564D2
:2017AC0000C046C052535349202D64423A2025640000FEE72DE9F84F8046DD480122A0F15F
:2017CC0030010A60D7490F68002FFCD0D74ED64AC02706F1040B1760DBF80010890804D2DD
:2017EC003168090C41F0F00100E07221E34AE44D4FF0000982F85412A5F1D407C0F800905B
:20180C00D6F808A03868C0F3046007F03FF85246534600EB2270401C162805DA10F10A0F20
:20182C00B8BF6FF0090000E01520E649E64F00F01F0040F4F8500880386880083ABFE348E5
:20184C00C0F8009042F04062E149A5F13C04D00E970E80F0010000F00100086087F001009B
:20186C0000F0010088602068C0F38367C0F38F215FEA9A4022D243F3072000280BD54242FB
:20188C004846490805D17F0806BF0127391C4FF6FF71521EF5D1002810DD4FF6FF724900BF
:2018AC0041F001018A4207D27F0047F001070F2F92BF01210F27111C401EF0D141EA0741E0
:2018CC00182005F019FE20682768C34CC0F3870140F2FF324B4607F0030041EA00212746B0
:2018EC0088B22C210090A7F1400005F059F9A5F110073868C0F30D011C2005F0FDFDB5496F
:20190C0057F8080C014000F07C400143142005F0F3FD57F80C1C01F47C000904090C0143C0
:20192C00102005F0E9FD57F8042CDBF80010C2F30350C2F30343490812D231680E0510EB4F
:20194C00267003D41028A8BF0F2000E04846090413EB217303D4102BA8BF0F2300E04B4617
:20196C0043EA001302F47F4002F0FF01B8F1220F40EA034041EA000124BF02F08042114316
:20198C000C2005F0B9FDB8F1220F32BF01202868C0F30070B8F1220F4FEA400040F0200022
:2019AC0084F8090126BF2868C0F3407001208B4EB8F1200F40F0100084F8090138BF49469F
:2019CC0006D33168C80C00F44070C1F384510143282005F091FDB8F1200F26BF3068C0F371
:2019EC0001504846B8F1220F4FEA400040F0600084F80C0126BF2868C0F3C0604846B8F111
:201A0C00220F4FEAC00040F0800084F8010126BF2868C0F345504846B8F1200F4FEA800086
:201A2C0040F47C40A4F89C0138BF6D490AD3306801038A15920501F47C1100F00F00114340
:201A4C0041EA0031082005F057FD2E464FF480002060A6F1D000816D40F20F226FF31F417C
:201A6C008A4213D901680068C1F30367C0F3034007B17F1E072805D006280EBF0720801CA6
:201A8C0000F00F003D4947EA00100870CAF381477F1E02D07F1E28D023E03168880C20D251
:201AAC004FF4804020604F48D0F802204B0AC1F3033703F0800322F08F02134347EA03022E
:201ACC00C0F80220D0F801300F0A67F30303C0F80130026801F0E70722F0E70247EA02014D
:201AEC0002E04FF0004120460160DBF80000C0F3C0070FB94020A0624FF400703E4F206476
:201B0C0028684FF04008C0F3C14040F0300084F8C800CAF38150A8B3401E0BD0401E28D0D2
:201B2C00022127E09402224300600C40AC3F005040100940012006F08DFB05460420294677
:201B4C0004F0DEFE042006F085FB8542FAD12648056825F07F4005F0E1FE384614300068D0
:201B6C00036807214FF06022280E98474FF4806020600321042004F0C3FE0AE002600840BC
:201B8C008C1300500420012104F0BAFE174805F0C5FE203E30681649164B47F6180500F041
:201BAC003F0084F8CB0F3A460D8018681068C168022088471248114EC0F8008001213160C1
:201BCC00BDE8F88F6E6208400000094094042A4300002043FCFCFC0040A00C4098130050E9
:201BEC0000803F400A600840A83F0050BD37860070B00C402C200940A0010010940460428B
:201C0C0000600C402DE9F04F09AFADF13C0D08900A92388809911E46ADF81800101C08BF76
:201C2C00002000F08481002700F101094FF0FF3A4FF0010BB8466CE1252940F06381107869
:201C4C00521C0A922D2818BFADF8068005D15846551CADF8060010780A9530281CBF4246A5
:201C6C00434605D10A9908785A465B46491C0A912A28CDF80080554616D1306804930A99AA
:201C8C00CDF808A0C01C4B1C20F00300001D306050F8044C0A93002C0878009418D5ADF8C1
:201CAC0006B06442009413E044460AE0610001EBC40140180A99A0F1300408780094491C76
:201CCC000A91302801DB3A28F0DBCDF808A004932E282BD10A9908782A2801F101010A91A2
:201CEC0011D13068CDF80880C01C20F00300001D306050F8045C002D48BF454608782B461D
:201D0C00491C0A9111E0454643460AE0690001EBC50140180A99A0F1300508782B46491C96
:201D2C000A91302801DB3A28F0DB02930AB1224604926C2804D04C2818BFADF8048005D19B
:201D4C000A990878ADF804B0491C0A910BA9CDF80C800FAB07916428059300F08B806928F4
:201D6C0000F08880BDF818C0752872D078286ED06F286AD0702850D063283DD073281ED06B
:201D8C0009980A990128A1F101010A9115D96B490C68B5F1FF3F03D0A84288BF6D1C00D83C
:201DAC00099D029508A80AA932466B46A047C7190A99039801F1010974E040462AE03068D1
:201DCC000A99C01C20F00300001D306050F8040CBCF1000F01F10109014608B955A0014664
:201DEC00079106F0A9FC0390B5F1FF3F5BD0A842C4BF281C039056E03068C01C20F0030001
:201E0C00001D306010F8040C5D468DF82C000A990395584601F1010945E00820356804904A
:201E2C00E81C20F00300001D306050F8041C082210230FA803F02EFF401E0790402101706F
:201E4C000A99079801F1010929E0082302E0102300E00A230A99306801F10109C01C20F0BF
:201E6C000300001D306050F8041CAA42BCBF2A1C049210E00A99306801F10109C01C20F0E8
:201E8C000300001D306050F8041CAA42BCBF2A1C04926FF009030FA803F0FCFE0790059D93
:201EAC00281A0390009C241ABDF8065000945DB906E008A8202109AA05F098FF009C7F1C65
:201ECC00641E0094F5D503980546401E039075B9BDF80600E8B10098401E009019D408A89A
:201EEC00202109AA05F082FF00987F1CF4E70798411C0791017809AA08A805F077FF0398E8
:201F0C007F1CE1E708A809AA05F070FF7F1C09F101094A460A9812F8011C401C00290A9074
:201F2C007FF48AAE089808B14146017038460FB0BDE8F08F286E756C6C2900C08890000054
:201F4C002DE9FE43BD4C0F460646F80B80F05081B80880F0CB806069B90F69D2A07A0028A7
:201F6C004AD138094AD3002501266570B448267206F0D8FCB3492A4604F14C0006F0B9FD04
:201F8C00607901281FD1A079E8B9DFF8BC82266AD4F81490D8F8000070B106F09BFBA0EB6C
:201FAC0009004346000B8619E0611868B6EBC01F28BF256208D2266204F1C8004FF000517B
:201FCC0006F02EFB31E0667140F60901218794F8451001F0F00141F0010184F84510658753
:201FEC0094F8441001F0F00184F84410974EE56304F13800306018E0380914D2B80BC0F0C7
:20200C00148104F1280006F07DFD061C08D0706830B17568F068B6F91C1000222023A8477B
:20202C0027F4005701E10020A07227F00807FCE0D8B1042006F00EF9B8B106F04BFBA061BC
:20204C006169814226BF401A401E401A000BF060F06840F6C41100F58D708142F06003D357
:20206C0040F2EE22824200D9F1600025D6F818C06561BCF1000F10D094F8450010F00F0F08
:20208C000BD1708C40F60901814206D130466FF480712A464FF00073E0476D4904F14C0078
:2020AC002A4606F026FDA07950B10220ADF80000684605F0C5FEA571BDF80800A4F8A00035
:2020CC00012060702079A846401C2071192084F8078006F081FB75692DB1414630464FF0E9
:2020EC0080630A46A84727F000579EE004F13008404606F007FD061C71D0B06840F6030263
:20210C002025531C02E040686D1EEDB260B15DB101888A4218BF8B42F5D1F1682CC82031CF
:20212C002CC129C881E82900B2694FF00009C6F818907068C8B1F07F42F00202002300F051
:20214C000700401E09D0401E04D0801E08D14FF0805304E04FF0804301E04FF000534A4691
:20216C007568F068B6F91C10A84706F07DFD0546B4F93600401C6FF31F30E086206B1F3069
:20218C00017801F07F010170404606F0D9F9284606F066FDF068B0F99410B4F93620914248
:2021AC001DD1217801291AD090F8965095B9056885B1E1680968B1F1FF3F10D025490968C0
:2021CC007030B5FBF1F106F047FDF068703006F03FFD04E080F89690484604F01DF84046BE
:2021EC0006F090FC27F0020708B147F002071CE006F03AFD014604F12C0006F083FC0646E6
:20220C00B569084606F02CFDA8080CD25EB1B069A843B061706830B12A46F068B6F91C1019
:20222C0075680023A84727F4804727B104F1C800394606F0F5F9BDE8FE83C046A80C0020C9
:20224C0059520000D17F0000D01F002000100440093E0000749000002DE9F04F0128ADF1AD
:20226C00140D40F0F280DFF81492D9F8DC00012840F0E9800220C9F8DC0006F0E5FC02907B
:20228C00012004F0D5FC20B101210646C9F8DC10D5E006F0D5FC03906E484FF00008C0F89C
:2022AC000080012005F0D6FF012818BFCDF8008004D1404604F014F90120009066486E4CED
:2022CC00C0F800801934D4F8FF0F112006F06EFB00280CBF46460126102006F067FB08B11C
:2022EC0046F002060F2006F061FB08B146F004060B2006F05BFB30B1584800685849006BAE
:20230C000246088890470A2006F050FB0028404618BF01204FF0805B0BF5DC7528B128681D
:20232C005049006B0246088890474F480127076028688069014646F0200088474B480760D9
:20234C0006F02EFB00F001010191400815D2484806F0A3FA8246BAF1040FF8D0BAF1010F73
:20236C0006D1DBF8D801406802464148032190474049086820F003000860404600F080F8F8
:20238C002868D4F8FF1F806B8047019801280ED0BAF1010F06D1DBF8D801406802463448BB
:2023AC00394690473349086840F0030008602A480760286840690146304688470B2006F075
:2023CC00F5FA28B128682649C06A0246088890470A2006F0EBFA28B128682249C06A024606
:2023EC0008889047204807600322C9F8DC201F4BC3F800802868406B014630468847012824
:20240C00F8D1042004F014FC124807601A48D4F8FF1F01688909FCD30098012802D13846D6
:20242C0004F05EF806F0B6FA082004F001FC06460398C9F8DC7006F0FFFB03F0BFFE029859
:20244C0006F0F6FB02E0042600E00126304605B0BDE8F08F0C40094000022243B801001062
:20246C008E8D00008A8D00002820086080010443004003402422084014100940D80E002022
:20248C002DE9F84FDFF8E8B10746ABF13500DFF8D4910068800880F0D68005F0BDFC064659
:2024AC0077480830D0F8008000254FEA28725FEA985002F101020AD2C6F13E0016F10A0FC1
:2024CC004FEAE000D8BF08208242B8BF021C624BD3F87C01C0F3046006F0D8F90446186822
:2024EC00C0F3044006F0D2F912198246162A05DA12F10A0FB8BF6FF0090200E01522574B50
:20250C00574802F01F0141F4F8511980006810F0030F18BF0125C00828BF45F002050FB1C5
:20252C0045F00405494691F90700301A052804DA8879A84208BF888865D0DFF82CE10F2EC4
:20254C00A6F10F0C25DB0CEB0610A0F1F00C4FEA2C27072F88BF07273C46062C88BF0624C7
:20256C005EF82400042303EB84037446E3581B1A03F0FF04E80824BFC3F307200444A80871
:20258C0024BFC3F307400444680828BF04EB136401E0002427465EF827E0E8080EF0FF038B
:2025AC0024BFCEF307200344A80824BFCEF307400344680828BF03EB1E63A4B2ACEB07273A
:2025CC00BAEB020004FB07F404F1800403EB1423D8BF0120342208F0FF0742437A43B2FBB5
:2025EC00F3F04FF6FF72824238BF101C802E80B2888005DA16F1800FB8BF6FF07F0600E0B7
:20260C007F26CE718D71194A12681F280A604FF0000208D340F2FF11814206D24008521C8F
:20262C008142FBD301E01F208880124F0F38000942EAC00247EA0200CBF8FB0F0026CBF84D
:20264C00FF6FBDE8F88F0D4F0B4E494608203760891D0870BDE8F88F3C1100506E620840D2
:20266C0024220840D41F00209C130050082009403500094000E7A48030100940FDFDA4008D
:20268C00AC3F00502DE9F0411C4615468C4208BF854282BF00230022E5E0002C08BF002D28
:2026AC000AD100290EBF00286FF000006FF0000100F0E1F8BDE8F0815FF000085FF0000EC3
:2026CC00002C08BF8D429CBF2C1C0025070C47EA01470E0CB44208BFBD429EBF5FEA044414
:2026EC0044EA15445FEA0545070A47EA01670E0AB44208BFBD429EBF5FEA042444EA1564C1
:20270C005FEA0525470847EAC1774E08B44208BFBD4200F29380870847EA81778E08B44227
:20272C0008BFBD427CD8C70847EA4177CE08B44208BFBD4266D8070947EA01770E09B44225
:20274C0008BFBD4250D8470947EAC1674E09B44208BFBD423AD8870947EA81678E09B4427B
:20276C0008BFBD4224D8C70947EA4167CE09B44208BFBD420DD8E60146EA5566EF01B142B5
:20278C0008BFB84201D3C01BB14158EB08085EEB0E0EA60146EA95664FEA8517B14208BFB2
:2027AC00B84201D3C01BB14158EB08084EEB0E0E660146EAD5666F01B14208BFB84201D300
:2027CC00C01BB14158EB08084EEB0E0E260146EA15762F01B14208BFB84201D3C01BB14111
:2027EC0058EB08085EEB0E0EE60046EA5576EF00B14208BFB84201D3C01BB14158EB08089D
:20280C004EEB0E0EA60046EA9576AF00B14208BFB84201D3C01BB14158EB08084EEB0E0ECA
:20282C00660046EAD5766F00B14208BFB84201D3C01BB14158EB08085EEB0E0EA14208BF85
:20284C00A84201D3401BA14158EB08085EEB0E0EA34208BFAA423EBF2D0A45EA0465240A27
:20286C0089D3734642461E4617460B46024631463846BDE8F08170472DE9F843814606F085
:20288C0083F8002100B901216B4E30680028FCD06C4D01242D1DEF6A346009B106F07AF839
:2028AC00DFF89881C7F3072008F1BC01086006F06BF8002100B9214630680028FCD02F6860
:2028CC00346009B106F066F8C7F38440C8F8C00006F05AF80146002001B92046014630689E
:2028EC000028FCD0ED69346009B106F053F8C5F38120C8F8D000B9F5C061C8F8B81000F0C3
:20290C00968098F8D80068B9C8F8D410D8F8C000C8F8C800D8F8BC70C8F8C470D8F8D06060
:20292C00C8F8CC60D8F8D410D8F8BC60002954BF02206FF00100454605F1C8031A6801EB87
:20294C0041014018411000EB917002EBA0021A60D5F8C810C5F8C46000291CDD1E293DDD82
:20296C00D5F8CC0030B93429B4BF15391E21C5F8C81025E02A29BABFD5F8C8000B381E20F0
:20298C00C5F8C800D5F8C4003F28B4BF401C3F20C5F8C4001FE0D5F8CC00032812D011F158
:2029AC000B0FC6BFD5F8C8000B30201CC5F8C800D5F8C4000028CCBF401E0020C5F8C40098
:2029CC00032009E011F1150FC6BFD5F8C8001530201CC5F8C8000020C5F8CC00B5F8C4007F
:2029EC00174E30214FF47F4208230090304604F0D7F8009404214FF400321123304604F051
:202A0C00CFF8B5F8C80004214FF4F80212230090304604F0C5F8B5F8CC0020214FF4406281
:202A2C000A230090304604F0BBF8BDE8F883002088F8D800BDE8F88300800C40D80E002026
:202A4C0000A00C4000A00C402DE9F04FADF1840D01F046F904F080F80026012804D105F059
:202A6C003FFD022808BF01265F490868C0F38150012806D151F80C0C0127010E07FA01F0D0
:202A8C0006435A48614F007807F12C00036804F063F803F07F03012804D105F021FD022889
:202AAC0008BF5B1C524D2B602C463BB1FF2104F140001F467F1E00F8011BFBD14D48006810
:202ACC004FF0000900F0FF01FE291BD0DFF824C100F0FF0749460122FF2F0CD0BB427FD9DD
:202AEC0002FA07F73E427BD100F0FF0047EA0909201880F840105CF8040F491C00F0FF0710
:202B0C00FE2FE9D1092001F035FE3A48002124220823606017A806F087F84FF0010804F130
:202B2C00240017AA8DF87480414606F079F8236843B3002794354FF0040BBA4608FA07F085
:202B4C00064219D119EA000F04BF07F0FF0141F4C04105D0E019274990F8400051F82010B6
:202B6C00254802F0A1F8F8B24FF0FF3105F080FB2368C5F800A001E0C5F800B07F1C2D1DAD
:202B8C009F42DBD301A800213022082306F044F80025FF20102101AB0990184A009504F17B
:202BAC00080006F035F80DA828220823294606F02BF804F160000DAA1395114914952B4604
:202BCC0006F01EF80F4951F80D0C20F4F85040F4005041F80D0C4746C1F8FF7F0A4E37603E
:202BEC0021B0BDE8F08FC046B43F0050E21F00202C1D0020808E0000007FC767998200002B
:202C0C00C96C00000D30094008000940181300502DE9F843674C04F1240005F073FF154642
:202C2C000E46009006F020F805F001078146B6F1FF3F0CD1A06A20B9B4F93600401C06B236
:202C4C0002E0A06AB0F91C60002084F8A300304605F060F80326002800F09B80A16ADFF817
:202C6C004081814269D0009FB8422ED03FB100990A68904209D0096800290091F7D1832EAA
:202C8C0041D0484605F0ECFF3DE004F1A40005F077FA00980168AA0802D20A6802600846E4
:202CAC00002202600091009818B9484605F0D8FF28E0C17F41F00401C177684605F040FC9B
:202CCC000146404604F066FCEDE704F1A40005F057FAA8083ABF606A0068002060624846C7
:202CEC0005F0BEFF0099C87F40F00400C877684605F026FC0146404604F04CFC009808B1A4
:202D0C00A808EFD28326E07988B9207A012843D0244805F007FE022104F1C80005F080FC66
:202D2C006078012838D0204805F0FCFD34E004F1C800022105F074FC2EE0A90803D3616A6F
:202D4C00009100266662C27F0121B9401143C17705F076FF0446002F14BF1448144805F09D
:202D6C006FF8484605F07CFFA80801D3009820B9204605F061FF83260EE0C17F41F0040125
:202D8C00C177684605F0DCFB0146404604F002FCECE7484605F064FF3046BDE8F883C04661
:202DAC00D80C00204D1F0000D94900000100020401000104A80C00202DE9F041654C07464F
:202DCC00A0690D46ADF1180D28B94FF00040002103F07AFEA061002100918846CDF8048012
:202DEC00CDF808803AA3CDF80C800A46CDF8108005F09EF838463AA3801E04D0801E4CD095
:202E0C00401E2BD00BE0A069012D14BF37A63CA645460095019502950395049546E0CDF830
:202E2C00008045460195029503950495A0694146424605F07DF800954246019202920392C2
:202E4C000492A06934A3022105F072F801208DF815009DF815000028FBD136E0CDF80080BA
:202E6C0045460195029503950495A0694146424605F05EF80095424601920292039204928B
:202E8C00A0692BA3022105F053F801208DF814009DF814000028FBD117E0CDF800804546CE
:202EAC0001950295039526A60495A0694146424605F03EF80095424601920292039204922A
:202ECC00A0690221334605F033F806B0BDE8F0813E3E3E535441434B204153534552540033
:202EEC002A2A2A4552524F522A2A2A003E3E20494E5445524E414C204552524F522100C0BC
:202F0C003E3E20494E5445524E414C204657204552524F522100C0463E3E2044454641551D
:202F2C004C54205350494E4C4F434B2100C046C03E3E204943414C4C2041424F52542100C1
:202F4C003E3E204F5554204F46204D454D4F52592100C046080200202DE9F04F8346ADF116
:202F6C00140D0393BBF1000F02920E9801910F9C049000F0AB80081C00F0A880101C00F055
:202F8C00A580181C00F0A2800498002800F09E80002C00F0A080206A002800F09780514D55
:202FAC00676A281D0068002F00F09080A16A05F023FE40B2002808BF6FF0020700F08280FC
:202FCC0084F82C002078618800EB80004018216A143080B288474249086030B92846406837
:202FEC0005F006FE4FF0FF376CE08A466088DAF800502178237805EB00096088421800EBD7
:20300C004106AA18AF1902F1040803EB430283188918EE1840182D18204603F079FD20785B
:20302C00C01C8010C9F800002078C01C8010C8F8000020780837C01C8010386020780C36DE
:20304C00C01C8010306020781035C01C801028602278594609F1040002F010F82278019932
:20306C0008F1040002F00AF822780299381D02F005F80095484641463A46334605F0B4FD91
:20308C0047B222780398331D194601F0F7FF22780498291D01F0F2FF22786188DAF80000AD
:2030AC0002EB82025218002102F022FC616ADAF8000088470B48406805F09AFDF8B299289A
:2030CC0008BF002784F82C70384606E01CB16FF0010084F82C006FF0010005B0BDE8F08F6C
:2030EC00444F0020181300202DE9F04304466668A7680D46ADF1340D05F0B6FD31780129A9
:20310C0003D105F0ADFD0020A3E04FF0010886F8008005F0A5FD287870706878B070686860
:20312C007060A868B060E868F06028693061287D3075687D7075A87DB075A869B061287FAA
:20314C003077687F7077A87FB0774FF00009C6F82090C6F830904D4675627563B562B563FB
:20316C0086F82C50102386F83C3086F82D5086F83D50786801F0FEFA2046FCF759FF204646
:20318C0002F018F870B934480068C16838688847786801F085FA05F067FD357005F060FDDC
:2031AC002C4655E001A829463022082305F034FD0694387BCDF80090284A0990B96801AB27
:2031CC0006F1680005F024FD01A829462822082305F01AFD05942249386901AA2B4607907D
:2031EC0006F1840005F00CFD01A829462422082305F01AFD8DF81C80B07838B906F1B800CC
:20320C00294601AA05F00CFD16483061707838B906F1D400294601AA05F002FD1248F0603F
:20322C0001A829462422082305F0DAFC0695ADF814500E49079406F1F0000A2201AB05F0E4
:20324C00CBFC0B4A06F154000421234604F020FE20460DB0BDE8F083D0010010ED4400000E
:20326C00F56B0000778A00006F8A0000D1550000F58700002DE9FC415E4C574D574EDFF829
:20328C0060815A4F94F8E410481E0B2861D8DFE800F07B2C430623430623430676640429C0
:2032AC0007D001220A2945F8212C14BF0220032004E02021012045F8211C024684F8E200CD
:2032CC00002045F8390C0827C5F8FF7FC5F8F37F45F8392CBDE8FC81052914BF0920062093
:2032EC00002584F8E400356070E094F8E1700120383D002FC5F81B0004BF0620002102D002
:20330C000021F160032084F8E400032045F8010C31603068800859D294F8E40001250328A2
:20332C000DD00021404660220523009103F038FC94F8E400062814BF0A200720D1E70220FF
:20334C000090002160220523404603F029FC0420C7E705F03DFCBDE8FC812249002622484B
:20336C000E60012505600E2001F09AF9022004F005FB84F8E45084F8E360BDE8FC810020CF
:20338C0038600C2578601FE01948006800680146202088472C3D41F61D560F2000214FF454
:2033AC00C072072345F8010C4046C5F803600225009503F0F5FB404600214FF4C0720723D0
:2033CC0003F046FD0120386084F8E45004F1780005F03EFCBDE8FC8139400C4038600C40DB
:2033EC0000A00C402C500C4004800C4034600C40A0010010D80E00202DE9F84F9946924692
:20340C008B46064605F030FC564C0090B4F93610B4F934000AAF401A40F6F8710140082938
:20342C0080F29080B4F9340004F59875401C6FF31F30A0860820B4F93480EB7F33F07F034C
:20344C0004D0401E05F12005F7D1002506F1700004F096FEC5F808B085F81EA0C5F8049036
:20346C00A5F81C804048EE6097E80C00202100271940104005F1100383E8030004F1240005
:20348C00EF770368002B50D1294604F083F8002851D0A6F89480E87F40F08000E87786F836
:2034AC009670607A40B1607830B10120A0726772A7712079401C2071009805F0D1FBA06A69
:2034CC0000284BD1607860BBE079012846D005F0CBFB0646207A00BBA86803F05DFA244AED
:2034EC002249E3681268086040B9304605F0B8FB04F1C800042105F093F82FE00968DB68EC
:20350C0004F1A400C91AB1FBF2F105F0A5FB04F1A40005F09DFB30461EE01649012008706D
:20352C00F9E7192005F058F918E004F12400294604F030F848B9B4F9340000F6FF706FF3DB
:20354C001F30A0866FF0010805E0A6F89480E87F40F08000E877009805F082FB4046BDE840
:20356C00F88FC046A80C0020F1EFFF9FD01F002074900000CC1F00202DE9F043584CE2680B
:20358C000746880FADF1140DC0F09A805068406808B18047E26851684B4E886808B9CD6850
:2035AC007DB13568002DFCD00022326010B18047E0684168C86800B180474A48503804F058
:2035CC003FFC4FF00008C6F80080404846F81C0C3F4805F0A7F9424640F60A01218704F1AF
:2035EC003800BD686287037B03F0F00303738146C4F83C8094F845006A8000F0F00040F095
:20360C00010084F8450000E01D466B6813B118888142F9D1C5F80490687B00F0F0006873E6
:20362C0004F1240005F06EFA80680088C91F81421ED0491C81421BD03B8CCBB197F82C00EE
:20364C0097F82D30C7F8248000F0F00087F82C0003F0F00040F0010087F82D0007F12001AB
:20366C00E16399F80D007A8400F0F00089F80D00184801688468C368009110226946406BF3
:20368C00019420F0784040F0805003901248029301F0F4FC30680028FCD0C6F80080012073
:2036AC0004F0D8FD012808D0687B00F0F00040F001006873094805F035F9B86846F81C0C6B
:2036CC0005B0BDE8F083C0461C10044001010E044D1F00004C13005018000021416500008D
:2036EC00A80C002051000706F8B5414C201D0368B3F1FF3F08BF002303F02EFA002876D154
:20370C003C4E20683468070F04F0FF04802C28BF002403F021FA4FF0FF3578B1401E07D04C
:20372C00401E012802D9801E13D014E08FB112E0381C5CD0801E0ED114340BE03846401E68
:20374C0055D0801E53D0001F51D0401E03D1163400E00A3465B2162D49DB2748274900251B
:20376C0001270560264E0F60264C376020680028FCD1274A161D2449244F306820F0030018
:20378C0001433868C0080CD2106810F0030F0AD041F003003060106800F003000328FAD10A
:2037AC0001E041F001011B483160006820B11A4800681846FDF7FEFF184819490560194F14
:2037CC000A686FF35B4247EA0200086016490868C0F30130012806D10A681448104040F4CC
:2037EC0000320A60086020680028FCD1F8BDFEE718130050A0100050840460425C600C40F5
:20380C00082204430C00684204000020B03F00500040034080012843000120438C2108404A
:20382C00482003400000390104000940FFFFFCFCF0B54E4C6179ADF12C0D012950D00229EF
:20384C001DD003297AD10179092915D107899FB1C0684178007800EB0120A0820027009741
:20386C003D460195029503950495A06934A33A46032104F05DFBA572002060715EE00179CB
:20388C00072912D107895FB1C2685378117801EB032121829178D37801EB03216182017977
:2038AC00072902D140781A2801D0012946D1208A618A002842D0ADF814000322ADF8161075
:2038CC0002206271F1278DF81800FF268DF8197021788DF81A60342205A803F083F82DE0E9
:2038EC00007903282AD11F480088ADF814001727009700220192029203920492A06915A36B
:20390C00032104F015FB0226E58966712478142004F0B2FB071C11D00321062204F016FF3C
:20392C003D81BE7205A8F860204604F027FB387404F0B2FB0C4A394603F05AFC0BB0F0BD39
:20394C0053696D706C652053766320466F756E6400C046C04D54552053697A653A2025642F
:20396C0000C046C0688F0000E78A0000080200202DE9F84F5FEA00091C46924600917DD01C
:20398C00081C7BD0BAF1000F78D0002C7BD0206A002873D03F4D616A281D006800296DD0D4
:2039AC00A16A05F029F940B2002808BF6FF002055FD084F82C002078618800EB40004018B7
:2039CC00216A0C3080B288473149AB46086030B9DBF8040005F00CF94FF0FF3549E088461C
:2039EC00638860882178D8F800605A183518B71803EB41003618204603F08AF82078C01CC5
:203A0C008010286020783F1DC01C8010386020780836C01C8010306022784946281D01F059
:203A2C002DFB28463A463346014605F0CDF845B2227800983B1D194601F020FB22785046CE
:203A4C00311D01F01BFB22786188D8F8000002EB42025218002101F04BFF616AD8F8000020
:203A6C008847DBF8040005F0C3F8E8B2992808BF002584F82C502846BDE8F88F1CB16FF0DF
:203A8C00010084F82C006FF00100BDE8F88FC046444F0020181300202DE9F04F0120ADF1CD
:203AAC003C0DADF81A000826ADF8186006A803F0EDFE00253F4C8DF834509DF81C006070E1
:203ACC0008986060304604F0D7FA071C0CD00121122204F013FF04F0DFFA0DA90123364ABD
:203AEC000091394603F0A2FB9DF8340004F1160210212070022003F081FD04F126020320B0
:203B0C00102103F07BFD042004F10C02014603F075FD4FF0090B4FF0030A4FF6FF770A20A6
:203B2C00ADF80A00ADF808604FF0FF33039302A803F0ACFE0028F2D10C95ADF82460ADF815
:203B4C0026B009A803F0A2FEDDF82C800028BDF828209DF82A10CDF83080E0D1102A4FF02B
:203B6C00010917D16078884214D1404601888F4208D00178D02902D100F022F800E048464B
:203B8C00814607E04088C00B04D30C4A0420014603F04EFD0C980028C1D0B9F1000FBED05E
:203BAC00ADF81060ADF812A0CDF8148004A803F06DFEB4E71C0A0020ED880000280A002082
:203BCC002DE9FF410446DFF81481A078002860D0401F44D0401E35D0801F20D0401F6ED15A
:203BEC004546E81C0078012803D0002867D100200CE0E088ADF802002789ADF80470668983
:203C0C00ADF80660A589ADF808500120A188ADF800108DF80A00684604F08AFE4FE0A6884D
:203C2C00257B0C2004F028FA071C48D00121162204F064FE3E81BD7204F02EFA394604F02E
:203C4C0011F83CE0A5880A2004F016FA002836D00121152204F052FE07460581ECE760788F
:203C6C0068BBE6786589142004F006FA071C26D00121142204F042FE3E72201DF8603D82F8
:203C8C000822BA7404F008FA134A394603F0B0FA15E0607898B945460220102105F1160247
:203CAC0003F0C6FC0320102105F1260203F0C0FCE01C016805F1100739608088B88045464C
:203CCC000835286820B1016811B12046884700E001200090BDE8FF81C38800001C0A002093
:203CEC002DE9F041444C94F8E700ADF1280D00286FD1394F387B01250021242284F8E750B8
:203D0C007E6884F8E6000823C4F80C6101A804F067FF002604F10C00069601ABADF8146070
:203D2C002E490796324604F057FF2D4904F1300001AB324604F050FF2A4904F1540001AB37
:203D4C00324604F049FFB868014628468847DFF89C8025487B7B0078D8F80410C1F38157C1
:203D6C001BB1032F03D184F8E150032F16D0022F14D0012F26D103201D4C009031464FF092
:203D8C0040521C23204602F00BFF009531464FF400720923204602F003FF13E0022003F095
:203DAC0005FE032F0CBF4FF47A7142F21071114800685434B1FBF0F1204604F04DFF204632
:203DCC0004F046FFD8F80000C00802D2304603F0EDFD0AB0BDE8F081149000001B40000010
:203DEC004155000079580000E21F0020B03F005000A00C4074900000D80E0020F8B504F059
:203E0C0087FB3F4E3D4F0446A00822D3B96A01B33D460020A8628A69086906F108032040CA
:203E2C00104340F0020088610A6918689043186001F1100090E80C0030681A1C9043306013
:203E4C0005F1300003F0A6FB022105F1C80004F0E7FBB86AA10815D200F110020CCA002139
:203E6C0022400B40002B08BF002A0BD0016985690C40F8622C434FF48041846107F1C8007C
:203E8C0004F0CEFBB86A002837D107F12404204604F038FE051C30D0F868E968884226D1C4
:203EAC00A86802F079FD17490860E0B906F1080128690A6810430860326805F1100393E841
:203ECC000300081C1043306000233361A86846F80C0C06F1100000680028FAD0204604F0F4
:203EEC002FFBBD62F8BD086802F096F9F8BD07F1C8004FF4805104F093FBF8BDA80C002033
:203F0C000C100440D01F00202DE9F0430746ADF11C0D04F055FE03F0E9FC4FF00009064616
:203F2C00CDF80C9004F05AFD30F0010002D00398B04202D16FF0040066E078684C4658B152
:203F4C00B0F1FF3F05D004A903F0B8FC30B1804659E04FF0FF3000E02046049004F02CFE07
:203F6C00049D4FF001082D1802E00A463BE004937068049904F040FE00282DD0684602F0B7
:203F8C0085FAD8B99DF8040005A903F049FA88B9BB68BDF814009DF80610029A984748B13C
:203FAC00BDF814009DF80650B881029BBD73C8463B6111E0029903A803F028FE0498641C25
:203FCC00B0F1FF3FD4D00028D2D004F0F5FD2B1A02D004989842CAD2039F04F0C7F906F12C
:203FEC00080547B13A4652F80C1C0029BDD1296842F80C1C2F6004F02BFB24B1706804F0CA
:20400C00F7FD641EFAD1404607B0BDE8F08370472DE9F04707467D68D7F8089090460E4637
:20402C0004F022FE8246A86A002864D105F1F00004F0A6F80024EC772E6250466C6204F042
:20404C000FFE04F011FE2F4E3378824623B9022003F0ACFC01203070504604F001FE2A49FE
:20406C00086840F4807008603846414603F06CF9A862C0B93846414602F000FDA878D0B9BB
:20408C00A96805F1B80004F0B7FDE8B9AC621020E8774946284600F05FFE04F0E5FD824687
:2040AC00307840B323E0D9F80010886B40F020008863A87810B12046BDE8F087A96805F1DD
:2040CC00B80004F099FD10B1686ABDE8F0873846414602F0D3FC1020AC624946E877284683
:2040EC0000F03AFE04F0C0FD8246307818B1022003F044FC3470504604F0B2FD4FF0FF3002
:20410C00BDE8F087E11F0020301000402DE9FC4191EA03084CBF4FF000484FF000084FEAEC
:20412C00C32545EA52554FEAC2264FEA43077F0D11BF45F0004500210020BDE8FC815FF485
:20414C00E06E1EF1FF0E774555D04FEAC12343EA50534FEAC0224FEA4104640D11BF43F00E
:20416C00004300210020BDE8FC81744543D0E419A3FB0501A3FB06E7A2FB06631EEB030E75
:20418C0057F1000751F10001A2FB05631EEB060E57F1000751F10001FF1851F10001C0199A
:2041AC0051F100014CBF4FF4806E4FF4007E10EB0E0051F1000148BF641C01D44000494141
:2041CC005FF44077FF37E41BDEBF00210020BDE8FC8117F58067BC420DD24FEAD02040EA71
:2041EC0041504FEA41014FEA113141EA045141EA0801BDE8FC810020FF21C900C91D090559
:20420C0051EA0801BDE8FC812DE9F04390460A68D8F800401678814600271D463846ADF190
:20422C00140D531C242E0B6053D112F8016F5B1C4C2E0B600ED1AA68E41C24F00304241DDE
:20424C0054F8040C494602F043F82968EF600127091A2960462E1AD1E41C24F00304241DCB
:20426C0054F8040CE41C029024F00304241D54F8040C002749460390AA68ADF8047001A86F
:20428C0000F04AFF2968EF600127091A2960532E1FD1E41C24F00304241D54F8040CE861B3
:2042AC00C8F80040288B0090A968EA69D9F800004346FDF7A7FCD9F80040002714B1011943
:2042CC00C9F80010D8F800402968EF60091A01272960662E0AD12B8B23B9E41D24F007041C
:2042EC00083403E0E41C24F00304241D1FB9E9690E700127EF60C8F8004005B0BDE8F0834B
:20430C002DE9F041344833490860FEF79DFB4FF08055D5F8D801314C036801210A462046E3
:20432C009847D5F8D8014268012120469047304900240320183141F80C4F401E8C60FAD131
:20434C00274D062005F14C010A46401E22F80C4BFBD10820234F0880234A8F602349121D70
:20436C0022F00303CF1A6F62EB612B62EE6905F12008944618460A4601E026F8024BB1424A
:20438C00FBD8B910E82700EB810121F8044C4FF6FC761F8006EA0C0300F1E807D21A6F619F
:2043AC0006EA0201EC39A0F8E810204601F0DCF9A861D8F80000686101F0A4FC02F028FED2
:2043CC0002F086FD01F012FA04F0F2FB2046BDE8F081C04680130020C52D000000400340D4
:2043EC00E80F0020E5800000E31F0020D03D0020EC0F0020F0B5ADF1340DFFF771FC30496B
:20440C0008682822082340F00200086001A8002104F0FAFB2B4E2C490524002301AA0794DE
:20442C0006F1C80004F0ECFB00213022082301A804F0F2FB0025FF271921244AADF81C50AA
:20444C0001AB099706F14C00009504F0E1FB2822082301A8294604F0D7FB1D49079406F111
:20446C00FC0001AA2B4604F0CBFB01A829463022082304F0D1FB0124ADF81C40099706F14C
:20448C0068001A2101AB134A009504F0C1FB12492A4606F1A400134604F09EFB0F4804F088
:2044AC0041FA86F8A3507571F57135727572B5727561B4714FF6FF70A6F8A0000DB0F0BDEC
:2044CC0000200940A80C0020F5850000D17F0000014C000095650000157F0000D9490000CC
:2044EC002DE9F8430746D7F80880D8F800007D68066C16F4F06F466425D1F00911D2700936
:20450C0051D395F83C00AC6B401E844288BF041C3846214602F04EFEA86B001BA8630DD0C7
:20452C0041E0A96B384602F045FE95F82D10A86311B9002837D101E00020A86305F1840032
:20454C0004F032FB2FE0F00A0ED3D8F80000002144684160A96B04F00F04202988BF20211A
:20456C00384602F027FE1AE04FF000094C4602E0A86B401EA863A86B88B13846012102F08A
:20458C0019FED8F80000446814F00F04C0F80490EED0286B401E2863686B401E6863EC7780
:2045AC00384601F051FCB0090BD3A96A49B10E46384602F0C9FEA86218B93846311D02F06B
:2045CC005DFABDE8F88370472DE9F04105463148AF686E681CC88846ADF1480D69461CC178
:2045EC001CC81CC10DC881E80D007868002424220823069021468DF8014009A804F014FBB7
:20460C00012109AA301D8DF83C1004F009FB98F80000401E08D0401E04D0401E14BF201C3E
:20462C0011A002E012A000E013A030621A483A680068904209D91948910001EBC2014258A9
:20464C00D26840186946904700E020463060002808BF251C03D00AA1122204F0F5F928462E
:20466C0012B0BDE8F081C0461B5B324B00C046C01B5B304B00C046C01B5B314B00C046C028
:20468C001B631B5B324A1B5B3130721B5B31313B314800C0048F0000A40C0020988F00007F
:2046AC002DE9F843044604F0DFFA81462D48021992F8ED10491ECFB2002F82F8ED704BD19E
:2046CC002B4D05EB84052E78698836F07F0788461AD1F10911D24FF08054D4F8B801806983
:2046EC0001464046884704F5DC742068406B0146404688470228F8D121E000EB8800D0F8CB
:20470C000011002088471AE04FF08054D4F8B801006A014640468847D4F8B801806A01463F
:20472C0040468847D4F8B801006B01464046884701210D4A0D48116001688908FCD306F08E
:20474C003F003F2801D0FFF7ABFF687800F03F003F2801D0FFF7A4FF484604F081FABDE8B4
:20476C00F883C046D80E00202820086028200840608D00002DE9F041064604F075FA2D4D09
:20478C008046A91991F8ED00421C002881F8ED204AD1294C04EB8604277807F03F003F28BE
:2047AC0001D0FFF7E7FF607800F03F003F2801D0FFF7E0FF668837F07F001AD1F80911D2C9
:2047CC004FF08054D4F8B801406901463046884704F5DC742068406B0146304688470128CF
:2047EC00F8D121E005EB8605D5F80011012088471AE04FF08054D4F8B801C0690146304622
:20480C008847D4F8B801406A014630468847D4F8B801C06A0146304688470121074A084804
:20482C00116001688908FCD3404604F019FABDE8F081C046D80E0020608D000028200860E6
:20484C00282008402DE9F041304C0546A0781F4616468846ADF1380D012803D0FFF7CAFD6B
:20486C000120A070B8F1000F09D0C5F8048036B1AE6004F0F9F9E17819B104F0F1F900202D
:20488C003CE0491CC9B2E17004F0EAF901243FB91C494CC909A84CC006C909AF80E806009F
:2048AC00386828607868E860387A2874F8686861386900B1A8610021782205F1200001F008
:2048CC0017F8684600212422082304F0ADF98DF8184005F1380000216A4604F0A1F96846CB
:2048EC0000212422082304F07BF90749069505F1700000226B4604F06FF928460EB0BDE861
:20490C00F081C046C88F0000A58A0000A80C0020F8B504F039F804F043F8044604F00C006F
:20492C000C2845D0E0081ED203F020FA234E376805460120014603F061FC3168694388421B
:20494C0011D21F4C8220B0FBF7F0291A204604F083F9204604F07CF90120FDF77DFC2046ED
:20496C0003F00EFC25E0200922D21648610939BF016821F00101016841F00101024601608B
:20498C00D2F898004FF0805440F00300C2F89800D4F8B8018069014620208847D4F8B801C8
:2049AC00094C806B2168804701202060206800E030BF03F0EFFF01F07DFAF8BD7490000061
:2049CC00E40E00208C2108402C200940042998B54BD1264C04F1240004F094F840B994F809
:2049EC00A300400838BFE06804D3D4F8880000E0C068E06041681E4A0978116041681268E8
:204A0C000978914207D087692FB16FF0FF0100224FF00073B847022002F0C8FF1120FFF75B
:204A2C00A9FE0120E071E168087C10B16079012803D00E20FFF79EFEE16849680D488F68E8
:204A4C000FB9CF681FB10021C1610B4F07600B4A40F2FF71116000278761094941610948BB
:204A6C0003F060FF192004F09BF898BDA80C0020D0210840001004405100070600000460A0
:204A8C0002000040853500002DE9F0430F46014648688968CE68B1F81080896899461446EF
:204AAC00ADF1140D0546001D04F0A6F800283AD0FF2F10D0641CA8F102017B1C30461BA20B
:204ACC00009403F087FC2B6A04462BB119683019241D016000E000240D980E9BA8EB0401AF
:204AEC0000900F9A10980193891E0C9B02924A460390301903F06EFCFF2F044406D10D2010
:204B0C00671C0A2330557C1CF35504E00BA109883019A41C018028683146224603F094FFD4
:204B2C00281D04F065F805B0BDE8F0831B371B5B3130721B5B25643B256448001B3800000D
:204B4C002DE9F0414568876814460E4604F08CF8A96B29B104F084F84FF0FF30BDE8F0815E
:204B6C00AC632E630024EC776C6304F079F804F07BF81E4E8046307820B9022002F016FF8B
:204B8C0001203070404604F06BF81949086840F4007008603968886B40F4FA6088636878A0
:204BAC00002818BF201C1ED1696805F1D40004F023F8B8B9AC633968886B20F4FA608863A8
:204BCC0004F052F80746307818B1022002F0D6FE3470384604F044F81027696B286BEF778F
:204BEC00401A2863686BBDE8F081C046E01F002030100040F8B504F037F82A4C0746D4F8D7
:204C0C009C0010F4602F2CD0D4F89C00400CC5B2680807D2A80803D2E80828BF022502E084
:204C2C00012500E000256E1D70B201F0D7FCD4F89C3005F111010120884023EA00013846B7
:204C4C00C4F89C1004F00CF804EB8500D0F88C7057B1D4F88800314600224FF00063B8471A
:204C6C0002E0384603F0FCFFD4F89C0020B104F1FC00002103F0D4FC94F8A300800810D332
:204C8C00D4F898703FB1D4F888006FF0010100224FF00043B84794F8A30000F0FD0084F854
:204CAC00A300F8BDA80C0020F8B50D46EEB2290824BF25494D40254AB300D15885EA01044E
:204CCC000440C4F3006C224C00EA050781433C4000F4E0272143B7F5E02F01D14C0E15D38F
:204CEC0000F4E0245CEA040710D001F4E027B7F5A02707D0B7F5803704BF21F4003141F498
:204D0C00A02103E021F4803141F4C021114CD150C10D04D3A4F18001C5F380528A55000E57
:204D2C0011D303F0A1FF290E03D201210022B14002E00121B1400A46503423688B431A4330
:204D4C00226003F08DFFF8BD006000A000100840FF7F077F8020024070B50D4629680646FE
:204D6C00886B20F02000886324482C7D0168A14212D900EB8400F36CD0F894108B420BD1EA
:204D8C0003F072FF1C4B1A680121A1408A431143196003F065FF2C7DF06C2146012202F045
:204DAC007FFAF06C297D002202F072FFF06CA97D002202F06DFFB078012806D006F1B8000F
:204DCC004FF0FF3103F018FF03E0296888690009FCD2F06C297D102202F05AFFA97D00204D
:204DEC00FF2902D0EA7DFF2A00D118B1F06C112202F04EFF70BDC046D02002402C1D0020E7
:204E0C002DE9FF410D4614464768244986680A6801A802608A8889798280A5428171A8BFA6
:204E2C002C1CB168381D804603F0E6FE48B300200090318AF0686D1C13A22B4603F0CAFAEF
:204E4C00A11CA9420ED9491B328A121A022A09D9F26801AB1C688218801D9B881460491E9E
:204E6C009380F1D1F1680CA2128841180A803B68F168851C2A46184603F0E6FD404603F013
:204E8C00B7FE0090BDE8FF811B371B5B3130721B5B25643B256448001B3800C05C900000F7
:204EAC002DE9F04114460F4603F0DEFE1FFA80F81F480068007808B903F04AFAE7B1386819
:204ECC004FF0FF3518B140280AD3810B08D17E681EB1310A04D0310E02D1B9680F2908D9D0
:204EEC003DB10CB1284620700820FFF7D9FB002418E07968BA6803E04FF48070012201466C
:204F0C0002F024FD0B49012008600B4908684008FCD30A4800684168022088470CB1002188
:204F2C0021700446404603F09BFE2046BDE8F08124900000A802504208800240CC01001065
:204F4C00F0B520480127F84201D001F071FD204D204F214EBD4206D203CD0478A400345907
:204F6C00401CA047F6E71D48002800D08047164D164FBD4202D210CDA047FAE7F0BD0325CC
:204F8C001BE0416808300A1C2A400BD11A1C2A40AB4305D0046804300C600431043BF9D110
:204FAC00131C05D0047801300C700131013BF9D1021C2A4001D0A84304300368002BE0D1C1
:204FCC007047C046FFFFFFFF000000000000000058930000B89300001493000059C5011000
:204FEC002DE9F843244D884606464FF0FF31603D05F12400814603F0FFFD00200CE0FF29B9
:20500C0009D02A688A4204D905EB8101D1F894700FB1002627E0401CB8F1000F03D018F84D
:20502C002010FE29EBD10024346074600127B46011E0FF280ED005EB80000B787268C0F80E
:20504C00946007FA03F0104370600A680949304602F034FE641CB8F1000F04D008EB840157
:20506C000878FE28E5D1484603F0C2FD3046BDE8F883C046007FC7678C1D0020002A4AD032
:20508C005FEA000C8B071CD1830722D1102A08D370B4103A78C978C0103AFBD270BC103232
:2050AC0038D0042A2CD3082A05D30C2A24BF08C908C008C908C008C908C092072AD0920F8D
:2050CC0022E00B780370491C401C521E22D08B07F7D1C30714D18307D8D0121F12D308C987
:2050EC0003801B0C4380001D121FF8D20AE008C903701B0A43701B0A83701B0AC370001D8C
:20510C00121FF4D2121D05D00B780370491C401C521EF9D1604670472DE9F843002A8946F0
:20512C0007464CBF47F6FF75151C002F08BF002032D03888002808BF002403D02A4600F00B
:20514C0067F90446281B26DD388828B1291B484612A201F019FE0419B868E0B1D7F804800B
:20516C002E1BB8F1000F0DD0404603F0E5FA401DB04207DC291B484609A2434601F004FEC2
:20518C0004192E1B122E06DBBB68291B484606A201F0FAFD04192046BDE8F8833A2000C03A
:2051AC00222573222C2000C06C696E652025643A2000FEE7B0B5456884682349607DA27D05
:2051CC00ADF1180D40F000400090207D0027FF2A41EA000001904FF0020002D0E27DFF2ABC
:2051EC0000D13FB1E37DA07D1943039140F0004002900420FE214DF8201005F140006946D6
:20520C00FFF7EEFEE864002808BF381C1AD0617D0F2202F03DFDE86C217D102202F038FDA1
:20522C00A17D3846FF2902D0E27DFF2A00D140B1E86C112202F02CFDE86CE17D122202F008
:20524C0027FD012006B0B0BD0000C0A0F8B50546880F3CD31E4E30681E4F20F0020040F425
:20526C0000703060032147F8041C41F23004BC60012139605022BA6039604FF4CA63BB60B1
:20528C003960154847F80C1C03F04CFB134FB81C0078012803D005F1380003F0A9FC0024D7
:2052AC000220346002F06AFB1120FFF7F9F9287C10B90E20FFF7F4F93846094A047211786E
:2052CC00447221B11470C830042103F0A9F9F8BD000004600C410440D9490000A80C002064
:2052EC00CC1F00202DE9F8432020EFF3118780F31188214CA068012103F04EFC4FF0010963
:20530C004FF0000865692168A4F81C906A1A2168A4F81E80461B401A904227D387F31188BA
:20532C0040464519361A4846294603F031FCB042F7D92021EFF3118781F31188E18B0129F0
:20534C0003D14046294603F023FCB0F1FF3F06D0A169801B814238BF081C411901E0A069EA
:20536C00291803F011FCA4F820902560A4F81C8087F31188BDE8F88378010020B0B504465C
:20538C00A768ADF1280D5FBB0C2000F0EDF9071C1DD0684600212422082303F021FC002380
:2053AC0006976A466168ADF810301848059303F0E7FB386070B90820ADF824000C25ADF891
:2053CC00265009A802F062FA384602F009FC6FF0030018E0E06878602069B860A7600AE0CB
:2053EC0002F0C4FF0546386802F0CAFE2069B860284603F02DF93868616803F02DFC3868FA
:20540C0003F026FC00200AB0B0BDC046498900009EB513460C461F4A1D4912880988824290
:20542C0006DB13A219460346204601F0ADFC9EBD194A1788814207DB02F0B2FE4268194675
:20544C00204601F0A1FC9EBD002F08BF0BA2E9D00094002B48BF47F6FF73104F002101930C
:20546C003C6802910E496A46A04702989EBDC0467B6D6F64756C652325647D007B6D6F641B
:20548C00756C652D726F70653A25787D00C046C06A900000909000008A0500008C900000F8
:2054AC00D97A0000F0B5204CE078A769ADF11C0D012804D11D49052001F02AFD29E001267C
:2054CC00002504F59070E67038226570294600F00FFA38460722314603F01EFA2A4600928A
:2054EC000192029203920492A0690BA3314602F01FFD02F05FFB8DF8140004218DF816600D
:20550C0003208DF817500A4A8DF8150005A802F0F7F807B0F0BDC046446973636F7665724B
:20552C00696E672E2E2E00C008020020BD8A0000C38A00002DE9984303F096FB1F4CDFF862
:20554C007880814604F1E000007850B94446A0680146022088470746102001F069FB2FB3AC
:20556C0020E000F0FDFD002820460FD1144909683222B2FBF1F101B9012100F130042046AF
:20558C0003F06AFB204603F063FB0FE044460022A16880F8E020022088470746102001F075
:2055AC0047FB1FB1A068014603208847484603F057FBBDE89883C04614900000D80E002049
:2055CC00749000002DE9F04107467868BE680446F03002F0D5FD30681B4980690968C0F3EA
:2055EC00C00008BB03F040FB184D8046287820B1022002F0C3F900202870404603F030FB26
:20560C003168134D886B20F020008863286820F480702860606A216A091A21622369626A08
:20562C0038469847BDE8F0814FF4FA70B0FBF1F1012998BF0121F034204603F00DFB204623
:20564C0003F006FBBDE8F08174900000E11F0020301000402DE9F04106467568B46803F011
:20566C0003FBA96A39B921688969090903D203F0F7FABDE8F0810027AF6203F0F1FAA17D8B
:20568C003846FF2902D0E17DFF2900D118B128462146FFF761FB2168886B20F020008863A8
:2056AC000D49086820F48070086003F0DDFA0B4C8046207818B1022002F060F927704046DA
:2056CC0003F0CEFA686A296A091A29622B696A6A30469847BDE8F08130100040E11F00207D
:2056EC0070B51E4DAC68064602F0EEFE4FF47A71001B4843030C02F08FFB2969401A48BF7E
:20570C00404240F6B8319B19994210D306280EDAE9688C420BD8286848B1114A091B5143B6
:20572C008A0C02EB1141884288BF011C08E00D49486840080ED208687D2100F0FF004143C3
:20574C00C82905D3B1F57A6F88BF4FF47A6103E0C82101E04FF4FA61084670BDA81F0020D3
:20576C0040420F00AC3F0050F8B5001D84B214F0030002D0241A241DA4B202F0F7FD1A4A59
:20578C00102C014657691161C8BF9769388800221646C30BDD0319D126B984420ADD3A46DF
:2057AC00012617E01388C3189BB29C42138011DC174618469FB1001B80B20428B4BF3C88E3
:2057CC00385344F400443C803F1D08E080F40040002680B2C71938880028DAD100270846C2
:2057EC0002F036FF3846F8BDE80F002030B500213C220823ADF16C0D01A803F0BDF91A4CCE
:20580C000125002304F5FC701449079501AA08904FF42F70099004F5D47003F0A9F91049EC
:20582C002B4644F6206204F18000009301F08EF800212822082310A803F0E6F902201495C5
:20584C00002316900749159310AA179304F1EC05284603F0D5F965621BB030BD7D5D0000A9
:20586C0045820000218B0000080200201CB5042002F0F0FC022818D0032816D016480068C3
:20588C00C0F38150032814BF41F288324FF47A721248144C016854342046B2FBF1F103F0CB
:2058AC00DBF9204603F0D4F91CBD03200C4C009000214FF040521C23204601F071F90120EB
:2058CC0000214FF4007209230090204601F068F9022002F053F81CBDB43F005074900000F3
:2058EC0000A00C40D80E0020002213460A46194671B510F0030F0BD0002A82BF00F8011BEE
:20590C00B2F1010210F0030FF6D1002A08BF71BD11F0FF0141EA0121042A18D341EA014109
:20592C00082A0FD30E46102A08D30C460D46B2F10F0312F00F0272C0103BFCD812F0080F07
:20594C0018BF42C012F0040F18BF40F8041B12F0020F18BF20F8021B12F0010F18BF0170A6
:20596C0071BD7047F8B50E46044603F069F90546304602F0CFF9071C03D1284603F05CF96E
:20598C0026E0F87F10F0070F1BD113487968884202D079682166786002214FF0E04204F1EB
:2059AC00580080E80600284603F046F904F138004FF0FF3103F020F904F1680797E80300E7
:2059CC00F8BD284603F038F9F87F10F0070FFBD102200021F8BDC0462568000038B5054658
:2059EC0001201A4C68712879B0B902F0BFFC2178002904BF6FF00704051C15D0491EC9B2AD
:205A0C00217039B902F024FE606802F077F80020687118E0054613E002F0A8FC0546207812
:205A2C00FF2805D16FF00604284602F011FE0BE0401CC0B20128207002D1606802F075F819
:205A4C00284602F005FE0024204638BD0813002070B50646B079F4680628A4F10C042CDA4E
:205A6C003079062829DA02F081FC154DB27991000C3501EBC20169184968E1B102F0E8FD28
:205A8C0030792071B0796071307AA071B179880000EBC1002818F1684068083002F0B6F894
:205AAC00B179880000EBC1002D186868406803F09FF8002070BD02F0CBFD6FF0020070BDA0
:205ACC002810002038B519491A4C00204822C1F8F30F94F8E200C1F8FF2F20B3012817D030
:205AEC00022807D003281ED151F8310C00F05EF80B2016E051F8315C2846FCF7BDFE40F26E
:205B0C00FF50A84202D8801CA842F1D2082008E051F8310C00F0C6FA054800780028E7D033
:205B2C00052084F8E400FDF7A5FB38BD39400C4022900000D80E002038B544688568E06CFC
:205B4C0002F04DFB296817488A6B1040886316480068C168286888476868FEF7A1FD04F139
:205B6C00680003F001F804F1840002F0F9FFA07818B904F1B80002F0EFFF607818B904F14E
:205B8C00D40002F0E9FF04F1F00002F0E1FF03F06BF80021217003F063F804F1540002F003
:205BAC00ABFA38BD0DF8FFFFD001001038B51A4CA0F5C060D4F8B810C4F8D4000029B8BF8F
:205BCC0049420028B8BF4042814220DAB4F8BC00124D30214FF47F4208230090284600F01B
:205BEC00DFFFB4F8C00004214FF4F80212230090284600F0D5FFB4F8D00020214FF4406254
:205C0C000A230090284600F0CBFF012000E0002084F8D80038BDC046D80E002000A00C4031
:205C2C002DE9F8438146EFF31188202080F31188174D154C134F012605F11C000660A4F11E
:205C4C0014000660F86A016A14208847D9F81000810C14BF000C04202060386802682321AF
:205C6C00002090470948066054F8180C20F4C02040F4803044F8180C2E6088F31188BDE87B
:205C8C00F883C046840100101820094080022443000024432DE9F8430024002B16460F46C0
:205CAC008046254606D5002FC3F1000302D57F42761E2D2599463846494601F069F90CA07D
:205CCC00405CB7FBF9F7002F04F1010408F8010DF1D1A64205DD3021301B401E08F8011D9F
:205CEC00FBD10DB108F8015D4046BDE8F883C04630313233343536373839616263646566A2
:205D0C0000007047B0B5ADF1400D02F09DFF044600213C220823684602F02EFF114841681F
:205D2C0006918168006804900F480068002205900E480891694602F007FF071C0DD002F0DD
:205D4C0015FB0546384600F08FFD30B1284602F07FFC204602F06CFF01E000F06BFC10B06B
:205D6C00B0BDC046948C0000EC0F0020D5870000F8B5184C04F15C0004F14401FFF730F952
:205D8C00E06104F1500104F16800FFF729F90646114841F288350068266245430C2002F0D0
:205DAC00ADFC002700B901270C2130463A4601F077FA284602F0C4FE266A0F2002F09EFC34
:205DCC00002700B901270F213A46304601F068FAE4E7C046080200207490000030B5401EF4
:205DEC004FF00004ADF12C0D0AD0401E04D0401E20D1FDF73FFA1DE000F0C4FA044619E007
:205E0C0001A821462422082302F0EAFE06940D4DADF8144009490794012201AB05F1780004
:205E2C0002F0DAFE064A23462C2105F19C00009302F0EEFE20460BB030BDC046F15F00001F
:205E4C00D15A0000D80E00202DE9F04106467568B46802F009FFA96B21B30027AF6302F06C
:205E6C00FFFE2168886B20F4FA6088630F49086820F40070086002F0F7FE0D4C80462078F2
:205E8C0018B1022001F07AFD2770404602F0E8FE686B296BEB68091A29636A6B304698471B
:205EAC00BDE8F08102F0DCFEBDE8F08130100040E01F0020164880B507683FB315498B68FA
:205ECC0003EA5300C00E21D2134A106880081DD2486880081AD21068096810F0050F4FEA0F
:205EEC00114101F0F00101F5E0710AD1B9420DD2190F38BF40F00100D90E38BF40F0040004
:205F0C0003E0B94202D920F00500106080BDC04628500940AC3F005000000940F8B5844638
:205F2C0040F6FF741CF8013B002210E0481B401E10F8015B7F1E01F8015BF9D103E01CF872
:205F4C00010B01F8010B521C5B08082AEADA5808F5D21CF8010B1CF8015B05F00F07FF1C80
:205F6C00C5F30315122F45EA001508D11CF8016B300A24BF1CF8010B60F3DF16F719AC42E4
:205F8C00D4D1F8BDD0B5044602F01AFE00F06CFC071C08BF6FF002041FD002F0E7F9014613
:205FAC00A2880F480023243030F80C6F5EB902804760A268826023737868206100240846A5
:205FCC0002F046FB09E0964208BF6FF00204F6D05B1C062BE8D300F02DFB2046D0BDC0465B
:205FEC00041000201648144A144908B5E4300078801E0A2807D8DFE800F018141006141033
:20600C000614100609C002F0E3FD11E010688008FCD250688008FCD20AE008688008FCD32B
:20602C0006E008688008FCD202E010688008FCD3FDF720F908BDC04634600C4038600C405B
:20604C00D80E0020FEB5064614460D46082002F033F813490E398F6A00B306803E468570EF
:20606C000823042244600746ADF800300C25ADF80220CC6A0195684601F008FC58B90299EA
:20608C0049B18F60204602F057FD16B1304602F0AFFD0120FEBD384602F0E6F90020FEBD7E
:2060AC0016020020134910B50A684BF2F5214843040AC2F38140012806D101F0ADFE01F01A
:2060CC0001F8604304EB90540C4901F1E500007830B90948006820F07F402418640802E0A6
:2060EC00002081F8E50006480460210C41600123836010BDB43F005010200940D80E002000
:20610C003C600C40B0B5044602F068FC30F0010008BF6FF004041ED002F052FD054602F0CB
:20612C0025F901460D480622403030F80C7F6FB1A388BB4208D1406800680022854208BF6D
:20614C000122A260002403E0521EEED14FF0FF34084602F07DFA2046B0BDC046E80F0020BF
:20616C0008B5012002F076F801281DD00F4834210122002300F06CFE002808BF002014D080
:20618C000B48006801F098FE02F09EF90A4A93681168D060C01A074BA1EB91014343180C3C
:2061AC00884228BF011C1160012008BD00A00C408000001040420F00A81F002098B5154B0D
:2061CC001B1D18680004070C21D001F025FE104991F90720824205DD10F1800FB8BF6FF0C9
:2061EC007F00C8718C88BC4210D80A68D3F8D40F801A801C1F2888BF1F203F1B4008C74015
:20620C004FF6FF70E719B84238BF071C8F8098BDD41F002030100940F8B5074602F024FD9D
:20622C00124C06462079E0B1401EC0B22071C0B904F1C800082102F0F3F997B1E0687030B0
:20624C0001F09EFFE0680A4DC0683F1A286804F1A405B7FBF0F1284602F0FEFC284602F009
:20626C00F7FC304602F0FCFCF8BDC046A80C0020749000001549096821280ADC212819D0FC
:20628C000C380FD00D380FD0001F0FD0C01E0FD01AE0253810D0001F10D0401E10D0401E1E
:2062AC0010D011E0086870474868704788687047C8687047086970474869704788697047AD
:2062CC00C8697047086A704700207047F0010020F8B50646B08815460F46FFF799F8044607
:2062EC00002D02D4281B0A2806DB3368291B38460BA200F049FD0419B08978B1002D06D473
:20630C00B06802F019FA291B401D884206DCB368291B384603A200F037FD04192046F8BD29
:20632C00257000C0282725732729000038B50C4620B141680122A240114201D1022038BDCB
:20634C00914341600D480025231800EB8401C1F8945003F140010978FF291ABF406850F853
:20636C00211044F020410648FEF79EFC20464FF0FF3101F07DFF284638BDC0462C1D00205A
:20638C00007FC76738B5134D95F8E100002410B91148007860B102F067FC95F8E3100029BC
:2063AC0006BF012185F8E310012402F059FC0CB1002038BD022001F0F9FA0E20FEF7DAF940
:2063CC0001F0EEFD01280EBF0120002085F8E20038BDC046D80E00202290000010B502F0D5
:2063EC0043FC124C611C097829B10F490C6802F037FC204610BD02F033FC02F06BF90C4A2B
:20640C00002302F0E5F8A26C002314001B184FF07A024FF0905044EB0104C11842EB0402EC
:20642C001046001C10BDC04604300440A80C002000093D000246F8B5084611464C682038D3
:20644C001CD0401E17D0401E18BF6FF0010019D18D6802F009FC0C4E07463068016928685B
:20646C008847B0F1FF3FF8D100253846A56302F0F7FB2846F8BD0021084601E00121002055
:20648C0084F82D10F8BDC046D0010010D0B5044602F096FB01F02AFA061C08BF6FF00400E8
:2064AC001DD001F063FFB168002908BF002709D051F80C2C0023B2600F4641F80C3CFF26D6
:2064CC0001F8026C02F0C4F8A7603FB117F8080C207117F8070CA0710020D0BD0220D0BD61
:2064EC00012838B51ED1012001F0B4FE01281BD002F002F80D4D0E480122322305F1E001C8
:20650C0000680A70B3FBF0F404B914463035284601F036FE2846214602F09EFB284602F02C
:20652C0097FB01E001F002F8002038BDD80E002074900000084610B500F0005100F004008A
:20654C00084317D0012001F085FE0E4C01280CD0094909686C3432222046B2FBF1F102F06B
:20656C007BFB204602F074FB10BD044802F0DAF90348046010BDC046749000004D1F000002
:20658C0000100440E00C002038B51248104C0168114D0C40E1430160A10908D3406880099E
:2065AC0005D328464FF40051C83002F039F814F4602F0BD0284600F19C010A6804F460247E
:2065CC00FC3014430C60002102F02AF838BDC04620000E0008100440A80C002098B504469B
:2065EC0002F042FB8446104890F8A310C90803D390F8A210A14213D0B0F8A0300B4F012267
:20660C0002FA04F11943A0F8A010391D0B6804F10C07BA4093430B600F680FB900210170FC
:20662C00604602F01DFB98BDA80C00200810044000BF704708B5FFF7FBFFFEE738B50D4CCB
:20664C000546A06820B10C48B0F1FF3F00D080470A4800688047606810B1014628468847B2
:20666C00206800B18047064800688047FFF7E2FF38BDC046F0120020FFFFFFFF101300205E
:20668C0014130020DCB5044602F09AFA01F02EF9064602F0A3F930F0010014BF002E6FF0D3
:2066AC00040017D0606858B1B0F1FF3F05D0694601F004F930B107460BE04FF0FF3000E05A
:2066CC00002000907068009902F096FA002700B901273846DCBDFEE7202101704FF42B7176
:2066EC004180032101710A4981604FF0FF3282620849C16008490161084941610849816164
:20670C000849C16100210162416280F82C1070470C8B0110308B0110548B0110788B0110F0
:20672C009C8B0110C08B0110F8B5044602F048FA00F09AF8071C19D001F018FE84460D48DA
:20674C000021243030F80C6F6EB94FF6F872028047600025856021717868A060604601F003
