:20000000D03D0020FD6B000001CA011001CA011001CA011001CA011001CA011001CA011023
:1C00200001CA011001CA011001CA011001CA011001CA011001CA01103FCA011082
:20003C00F0B52B4D05F12C0158C9ADF11C0D02AA58C20AC94FF0805682E80A0047688468BF
:20005C00D6F8D001C16820688847216821488A6B10408863206840F2F271416497F83C00B6
:20007C0097F83D10C0100DEB80008068084321684863684600F032F8D6F8D001397F46680C
:20009C0005EB8101BA698B68797F206855F821101943BB7F05EB8305AB690B430199B047BD
:2000BC000D490A1F106840F010001060086840F001000860A07D0027FF2802D0E07DFF28B3
:2000DC0000D11FB1086840F44040086007B0F0BDC08C00000DF8FFFF30100040DFF800F0DD
:0400FC00F9BF011037
:200100003C000000000000000000000034010000000000000000000001000000000000006D
:1C01200000000000000000000000000001000000000000000800000000000000BA
:20013C00340000000000000000000000680100000000000000000000010000000000000005
:14015C00010000000000000000000000080000000000000086
:2001700030000000000000000000000098010000040000000000000001000000FFFFFFFFA5
:10019000FF00000001000000080000000000000057
:2001A0002C0000000000000000000000C4010000040000000000000001000000FFFFFFFF4D
:0C01C000FFFFFFFF08000000000000002F
:2001CC0034050000E401000099A1011095A70110A5C2011009B2011045B80110000000000B
:0801EC00000000002F000000DC
:2001F400280000000000000000000000140200000000000000000000FFFFFFFF00000000B1
:080214000800000000000000DA
:20021C00300500003002000069C201106DC101101FC2011095BA011000000000000000008E
:04023C002D00000091
:20024000300500005402000075C20110A9B601109DBF011049B601100000000000000000DE
:040260002E0000006C
:200264002400000000000000000000008002000000000000000000000000000008000000CC
:040284000000000076
:20028800240000000000000000000000A40200000000000000000000000000000800000084
:0402A8000000000052
:2002AC00240000000000000000000000C8020000000000000100000000000000080000003B
:0402CC00000000002E
:2002D00000000000880F002004000000000000000000000020000000700100003000000092
:2002F0001C020000900F00200400000000000000000000000C0000003004000018000000B5
:2003100040020000980F002004000000000000000000000024000000480400001800000038
:2003300000000000A00F002004000000000000000000000010000000A00100002C000000FD
:20035000CC010000A80F00200400000000000000000000002000000064020000240000003B
:20037000FFFFFFFFB00F0020040000000000000000000000280000008802000024000000B8
:20039000FFFFFFFFB80F0020040000000000000000000000580000003C010000340000009D
:2003B000FFFFFFFFC00F0020040000000000000000000000100000006004000018000000B2
:2003D000FFFFFFFFC80F00200400000000000000000000001C000000AC0200002400000028
:2003F000FFFFFFFFD00F002004000000000000000000000038000000F40100002800000099
:20041000FFFFFFFFD80F002004000000000000000000000054000000000100003C00000034
:1804300018000000000000000000000040040000080000000000000050
:1804480018000000000000000000000058040000080000000000000020
:18046000180000000000000000000000700400000800000000000000F0
:0804780001000000E48E000009
:0404800006F058B872
:040484000100000073
:0404880000000E0062
:04048C0000000F005D
:040490003200000036
:040494000100000063
:04049800280F002009
:04049C00000200005A
:0404A0000000000058
:0404A40001CA011078
:0404A8000000000050
:0404AC00000000004C
:0404B0000800000040
:0404B4000000230021
:0404B800100E002002
:0404BC00010000003B
:0404C000400F0020C9
:0404C400080000002C
:0404C8000000000030
:0404CC00000000002C
:0404D0000000000028
:0404D4000000000024
:0404D8000000000020
:0404DC00010000001B
:0404E000780E002072
:0404E400060000000E
:0404E800010000000F
:0404EC00340D0020AB
:0404F0000000000008
:0404F4000000000004
:0404F80000020000FE
:0404FC0000000000FC
:02050000704742
:020502002900CE
:020504000100F4
:020506002500CE
:020508002D00C4
:02050A002E00C1
:02050C002F00BE
:02050E000100EA
:0105100001E9
:0805140003000000B88E000096
:08051C000000000000000000D7
:0405240000000100D2
:0405280000000300CC
:04052C0087C401106F
:04053000380500008A
:040534003805000086
:0405380000000000BF
:04053C00900000002B
:040540009000000027
:0405440000000000B3
:04054800400F002040
:04054C002F860000F6
:040550002000000087
:04055400588E0000BD
:04055800748D00009E
:04055C000DC30110BA
:040560000B6D00001F
:04056400CB6E00005A
:0405680099C801101D
:04056C009BC8011017
:040570000000000087
:040574007B8E00007A
:04057800908C000063
:04057C00A88C000047
:04058000788C000073
:0205840008006D
:0205860009006A
:02058800010070
:02058A0000006F
:01058C00016D
:040590000000000067
:040594000000000063
:04059800000000005F
:04059C00000000005B
:0405A000B589000019
:0405A400D971000009
:0405A800257F0000AB
:0405AC00C97500000D
:0405B000C57600000C
:0405B4009979000031
:0405B8008D5B000057
:0405BC00AB87000009
:0405C0007561000061
:0405C40011C8011049
:0405C80021C8011035
:0405CC000800000023
:0405D0002400000003
:0405D400180000000B
:0405D80028000000F7
:0405DC0020000000FB
:0405E0003C000000DB
:0405E4000C00000007
:0405E80034000000DB
:2005EC002DE9F04F0820ADF16C0DADF820000120ADF8220008A807F0C1F8DE4C9DF824006B
:20060C0020700A9804F1400500216062284608F077FADD494FF47A72002304F14C00A562E8
:20062C0006F05AFA1520A02107F060F816204FF4A07107F05BF819204FF42F7107F056F8EA
:20064C001A20002107F052F8D0494FF47A62002304F1700006F040FACD4D05F1180005F1E4
:20066C000C0104F04BFDDC49A86008F056F9DB4E4FF4E0213246521E07F098FAA8684FF480
:20068C00E021324607F092FAD54EA8684FF0C0513246521E07F08AFAA8684FF0C051324694
:2006AC0007F084FACF49C822002305F1240006F013FAD04F4FF6FF790026CB48A4F8369000
:2006CC0002216860CA4D3E60A81C017008464FF47A6107F00BF803204FF47A6107F006F89D
:2006EC00C249032006F0C2FC0127B0468DF85F6044F6C74012903B468DF8608004218DF837
:20070C005E7012AA8DF861304FF4816006F0B2FD4FF480600DF15E02394606F0ABFD40F294
:20072C0002400DF15F02394606F0A4FD40F2034018AA394606F09EFD40F206400DF16102D6
:20074C00394606F097FD082007F0F8FB071C09D00221112208F01CF807F000FCCB4A39468D
:20076C0006F0C0FC26780A2007F0E8FB071C0CD00221122208F00CF8304607F061FB387254
:20078C0007F0ECFB394607F0E5F9032006F0E2FE042006F0DFFE04F12C0095F801A0AE78B6
:2007AC00A860182007F0CAFB071C19D00421424607F016FF504607F043FB387208207872E5
:2007CC00BE7205F11603FB6005F126023A6105F10C01796107F0C2FBBD4A394606F082FC2F
:2007EC000C2007F0ABFB071C0BD00121042207F0CFFF04F13800B86007F0B0FB394607F0BC
:20080C00A9F90120102106F0BFFE0220102106F0BBFEC246CDF800A0CDF804A0CDF808A0E0
:20082C00CDF80CA0CDF810A0A069C9A34146424607F0E0FA04F1940B0820ADF818000A27C7
:20084C00ADF81A704FF0FF36079606A806F096FF002840F0D383504611900827ADF82C70BE
:20086C000926ADF82E600BA806F088FF0D9D0028119540F0C383BDF83000102807D120785F
:20088C009DF83210884202D1284600F043FC1198002800F0B383284607F052FDAEE3A06AF5
:2008AC00054608F029F9854208BF574602D0876807F02EFD38460028199000F09F833D46D5
:2008CC00E1892888801E00F03C83801E00F0E082001F00F0B582083806D0103800F0858319
:2008EC00203800F0748386E32079AD78002800F09F82401E00F0B381801E1AD0401E40F0B5
:20090C007A83E0782909C0F09382012800F073836778002F00F06F83A178A0698F4200F39A
:20092C0002820221072207F041FF57465646554660E2E0792A093DD3A669021C06D0521E7F
:20094C0028D0521E1CD0521E16D033E00120E071084607F055FD50B9BCA35046009057469A
:20096C000197524602925146039104971DE0B3A3F3E7C0460802002084F807A0ABA3ECE740
:20098C000320A7A308E0C046B181000025840000800D002002209EA3E071574600975246E8
:2009AC00019251460291039704923046072107F021FAE0796909C0F01E83E589A3690028D0
:2009CC0000F0F080401E00F08580401E14D0401E00F00F810FE3C046857A00000E000580AE
:2009EC000E00001075850000DF8800004589000084060020380200202079A68A032840F076
:200A0C00FA82002E00F0F782A07A012800F0F382BE48627A21780768002A39D02A46002F53
:200A2C0008BF504606D050460090122301200146B847A36900280F9000F0DD825046574660
:200A4C00009056465546019706215246029618460395AAA3049707F0CDF90126A08A0F9940
:200A6C00ADF83A60257AADF8380012220D700EA88DF840A021788DF841A005F007FF051CC8
:200A8C001FD00EA8122107F013FC17E073870000ADF8506014A80A2205F0F8FE0546504672
:200AAC00009057460197564602965346039352460492A0690621C0A307F09CF9002D40F058
:200ACC009A820121607AA17280F00100607292E25D890000284607F093FC00283ED11846B9
:200AEC000521524607F062FEE089054606F088F940B3284607F084FC071C18D1B248C08884
:200B0C004FF6FF7181421DD1242007F037FAAE490860B8B1C9495246534605F0DDFFAA4829
:200B2C004FF47A760146C5800F468E8005E0386807F036FF4FF47A70B88038684FF47A71A3
:200B4C0006F028FB57463DA3564655461EE0C046424C452043656E7472616C00284606F098
:200B6C002BFA5046009057460197564602965546039553460493A06905215246C0A307F031
:200B8C0039F9E079012840F0368230A307215046009001970296039552460492A06907F096
:200BAC0029F928E250465746009056465546019704215246029618460395ADA3049707F03E
:200BCC0019F9A07960B1401E40F01582A0204FF4A0714FF42F7206F067FB84F806A00AE24A
:200BEC005020A0214FF4167206F05EFB0120A07101E205F0B9FF05202071A06901210722D2
:200C0C0007F0D4FD5746564655460121C9A3BEE73E526561642F777269746520726571007D
:200C2C003E446973636F6E6E656374003E506172616D207570642072657100C03E53746F2C
:200C4C0070205253534920706F6C6C003E5374617274205253534920706F6C6C00C0E07844
:200C6C00290955D26809C0F0C681A778002F00F0E2806678002E00F0BE817801A0EB870041
:200C8C00584410F8089CC51FBB480226267107F085FE06F007FF8DF855A08DF856A08DF86A
:200CAC0054008DF85790296816A80160AF888780B44A15A8092106F09BFCA06904210722B1
:200CCC0007F074FDA669284605F0F8FC57460346504600905546019702210295524603970F
:200CEC003046049507F086F8504600905646019704210295B7A303964EE7C046577269747A
:200D0C0065207265712073656E7400C0680F0020012800F070816778002F00F06C81A178BB
:200D2C00A0698F4252DD491C5746009156465546019752460296AAA303950121049707F073
:200D4C0059F8A178A5694801A0EB81005844153005F0B4FC03465046009001960221029772
:200D6C00524603962846049707F044F8A1784801A0EB8100584400900196029755460395FD
:200D8C0053460493A06952460321B2A307F032F85046009001960297039553460493A069B5
:200DAC0007215246A6A307F025F801202071A078401CA0701FE1C0465265616420726571EA
:200DCC002073656E7400C046380200200121072207F0ECFC607800905746019756460296D2
:200DEC005546039553460493A06901215246B8A307F000F8504600900197029603955346F0
:200E0C000493A06906215246BAA306F0F3FF5046009001970296039553460493A0690721D3
:200E2C005246B0A306F0E6FF012020714046C0E76809C0F0E08004F025FBDCE0B18500007A
:200E4C006D68E8884FF6FF71814200F0D48005F0D7FF002800F0CF802868A98806F09AF909
:200E6C00E988A84B41F20540524606F009F8C2E0506172616D207570642072657100C04691
:200E8C00525353492043616E63656C6C656400C068685646894607781396082007F04EF8E2
:200EAC00061C0CD005210A4607F09AFB07F056F813A90423944A0091314606F031F9139E47
:200ECC0092489249B6FBF0F04843361ADFB150460090574601975346029352460392514608
:200EEC000491A06977A3042106F084FF00965046019002975346039352460492A0690521AE
:200F0C006FA306F077FF102007F018F8071C0ED00121132207F03CFCA7F8089087F80AA029
:200F2C00FE6007F01BF87A4A394606F0DBF868684AE0C046446973636F6E6E656374696E50
:200F4C0067006A68AF78A0691178002F2BD0012F1AD0022F12D0032F35D151B954A351466C
:200F6C000091574601975646029652460392049724E04AA30DE0C0467802002019BB43A36B
:200F8C00EDE7C04663890000002908BF3BA3E6D035A30091514601915746029756460396FE
:200FAC00524604920AE0514600915746019756460296CDF80C8028A3CDF81080062152464C
:200FCC0006F018FF6A68104607F096F913E005F0CBFD10E0436F6E6E656374696E6700C0E2
:200FEC0044657669636520256400686800F092F8686807F0A5F9199807F07EF9A06A07F01D
:20100C0077FD00283FF44BACA0894108FFF414AC20F00100A0810127A4F814A0E68AA4F823
:20102C0012A02178A4F810A002226771301FADF852000DF1520005F029FCFFF7FDBBC046AD
:20104C003E524947485420746F20636F6E6E65637400C046257300C050616972696E672073
:20106C00737461727465640050616972696E67206661696C3A20256400C046C050616972B2
:20108C00696E67207375636365737300426F6E64696E67207375636365737300426E6420DF
:2010AC0073617665206661696C3A20256400C046426F6E642073617665207375636300C0F0
:2010CC00256400C050617373636F64653A00C0464465766963657320666F756E64202564A1
:2010EC0000C046C03E524947485420746F207363616E00C03C4C45465420746F2062726F0D
:20110C0077736500FB8800008189000040420F00658700002DE9F04F0446C04D2078297984
:20112C00ADF1140D913800F0A1821F3800F02682203840F0B482A0786E78D5F818800FF2F7
:20114C00CC29002800F0DC81401E00F02381001F0FF2AC2A00F09E80401E00F09681401E60
:20116C007AD0801F40F09B822779601D022E804616DA2EB105F1A901062206F097FE78B1CF
:20118C0041460B687001A0EB86002A18943202F11500036089888180731C1775DEB26E70B9
:2011AC00002E00F07C8205F1940905F1A90A04F1050BB046002558465146062206F076FEE4
:2011CC00002841D12269237B266910469918491E1B185B1EB34237D912F8017B87B11678A6
:2011EC00082E03D0092E18BF3A4409D17F1E521CFFB2022F01DB914205D8012F08BF521C96
:20120C009142E9D820E010F8017BD7B10178082918BF092916D16A017F1E401CA2EB850210
:20122C0009EB0201CF76002183420DD98F4209DD10F8016B02EB010C491CC9B209F80C6028
:20124C00F2E738188342DED8B8F101080AF11C0A05F10105AFD122E2032940F02082E07835
:20126C0070B9E08806F0BAFEA3A20CCA02F044FF05F0E0FC0090B9A300200246019003E03A
:20128C00009000220192B9A30292039204210492404602E26078002861D103206789287175
:2012AC004FF0010BEF81A88A85F80AB030B905F14C0007F073FB6E78D5F818802EB904F147
:2012CC00040A05F19409002412E004F1040A05F1940905F1A907002450463946062206F0B8
:2012EC00E5FD28B1761E07F11C0704F10104F3D140465946072207F059FA6001A0EB8400B2
:20130C0048440090002701973C46029403940494A86959462246B8A73B4606F06BFDAE6932
:20132C00504605F0CBF90090022101943B460294224603943046049406F05CFD009401946E
:20134C00029403940494A869B4A30321224606F051FDB5A3EC7122460721104697E14FF62C
:20136C00FE70E88100262E710421324640466E7107F01CFA00960196029603960496A869AD
:20138C00B6A30221324606F035FD6078534603210090D8E00024EC70404601210722AC70DB
:2013AC0007F004FA6878009001940294264603960494A869BBA30121324606F01BFD0420B9
:2013CC002871687860BB00960196029603960496A869B9A30821224606F00CFDE8690721FF
:2013EC00224606F01BF8E8690122062106F016F8286A22460C2106F011F8012236E0C0466C
:20140C00526561736F6E3A20256400C03E524947485420746F207363616E00C00802002047
:20142C0000960196029603960496A869A8A30621224606F0DFFC00960196029603960496F4
:20144C00A869A7A30821224606F0D4FCE8690721012205F0E3FFE8692246062105F0DEFFA9
:20146C00286A01220C2105F0D9FF2246286A0F2105F0D4FF32460092019202920392049263
:20148C00A8694B460721804602E74FF6FE70E88100262E71AE826E71A088AE7205F08CFD11
:2014AC00A8690121072207F081F9374600970197029703970497A8698EA30121324606F007
:2014CC0099FCA079009001973446029403940494A869534602213A4606F08CFC00943A460C
:2014EC000192029203920492A8694B46072106F081FCEE71D3E0C046000000000000F43F06
:20150C0060890026E882374600967EA3019731460297324603974046049706F06BFCAE69C3
:20152C00E01C05F0CBF83C46009703460194012102943A4603943046049406F05BFC3E4646
:20154C0073A30221009634460194029403940494A869324606F04EFC4B46FCE65061725528
:20156C0070643A202564206D7300C046506172616D206572726F723A20256400032966D121
:20158C006178A869162957D021790B292CD0012902D1217A0A2927D02179132916D001297D
:2015AC0002D1227A122A11D07E290BD07F2906D0687900284BD0204602F030F947E022891C
:2015CC0056A301E0227A59A3032138E0012907D0297A5AA3491CC9B22972491EC9B20FE064
:2015EC00217B5AA31A4605E02179012906D0E16809785AA2134603E0257300C0217B5BA373
:20160C000091002101910A46029203920621049206F0F0FB0020A87219E0C046436F6E6E9C
:20162C00656374656400C0463E506172616D207570642072657100C0227950A3062100928C
:20164C000022019202920392049206F0D3FB217904F1080006F02CFE21E0C046436F6E6EFA
:20166C00656374204661696C656400C060780E2815D1A08841F20542824210D103290ED1B7
:20168C00A06890F90300002241A30521404200900192029203920492A86906F0ABFB05B0B8
:2016AC00BDE8F08F4465766963657320666F756E6420256400C046C0547261636B657220A0
:2016CC006973206F7574206F662072616E6765003C4C45465420746F2062726F777365006C
:2016EC00547261636B657220697320696E2072616E676500446973636F6E6E65637465641F
:20170C0000C046C0424C452043656E7472616C00496E697469616C697A6564004D545520AF
:20172C0053697A653A20256400C046C046432056696F6C617465643A2025640057726974EF
:20174C00652073656E743A20256400C05772697465204572726F7220256400C05265616481
:20176C00207273703A20256400C046C052656164204572726F7220256400C04641545420E1
:20178C0052737020647270656420256400C046C052535349202D64423A2025640000FEE76E
:2017AC002DE9F84F8046DD480122A0F130010A60D7490F68002FFCD0D74ED64AC02706F1D1
:2017CC00040B1760DBF80010890804D23168090C41F0F00100E07221E34AE44D4FF0000944
:2017EC0082F85412A5F1D407C0F80090D6F808A03868C0F3046006F093FF5246534600EB73
:20180C002270401C162805DA10F10A0FB8BF6FF0090000E01520E649E64F00F01F0040F4FC
:20182C00F8500880386880083ABFE348C0F8009042F04062E149A5F13C04D00E970E80F071
:20184C00010000F00100086087F0010000F0010088602068C0F38367C0F38F215FEA9A4026
:20186C0022D243F3072000280BD542424846490805D17F0806BF0127391C4FF6FF71521EDC
:20188C00F5D1002810DD4FF6FF72490041F001018A4207D27F0047F001070F2F92BF01211B
:2018AC000F27111C401EF0D141EA0741182005F081FD20682768C34CC0F3870140F2FF32B8
:2018CC004B4607F0030041EA0021274688B22C210090A7F1400005F0B7F8A5F110073868D8
:2018EC00C0F30D011C2005F065FDB54957F8080C014000F07C400143142005F05BFD57F826
:20190C000C1C01F47C000904090C0143102005F051FD57F8042CDBF80010C2F30350C2F32A
:20192C000343490812D231680E0510EB267003D41028A8BF0F2000E04846090413EB217331
:20194C0003D4102BA8BF0F2300E04B4643EA001302F47F4002F0FF01B8F1220F40EA034031
:20196C0041EA000124BF02F0804211430C2005F021FDB8F1220F32BF01202868C0F3007066
:20198C00B8F1220F4FEA400040F0200084F8090126BF2868C0F3407001208B4EB8F1200F68
:2019AC0040F0100084F8090138BF494606D33168C80C00F44070C1F384510143282005F0DB
:2019CC00F9FCB8F1200F26BF3068C0F301504846B8F1220F4FEA400040F0600084F80C01B3
:2019EC0026BF2868C0F3C0604846B8F1220F4FEAC00040F0800084F8010126BF2868C0F3DC
:201A0C0045504846B8F1200F4FEA800040F47C40A4F89C0138BF6D490AD3306801038A1518
:201A2C00920501F47C1100F00F00114341EA0031082005F0BFFC2E464FF480002060A6F1AC
:201A4C00D000816D40F20F226FF31F418A4213D901680068C1F30367C0F3034007B17F1EA5
:201A6C00072805D006280EBF0720801C00F00F003D4947EA00100870CAF381477F1E02D066
:201A8C007F1E28D023E03168880C20D24FF4804020604F48D0F802204B0AC1F3033703F049
:201AAC00800322F08F02134347EA0302C0F80220D0F801300F0A67F30303C0F801300268C9
:201ACC0001F0E70722F0E70247EA020102E04FF0004120460160DBF80000C0F3C0070FB9AE
:201AEC004020A0624FF400703E4F206428684FF04008C0F3C14040F0300084F8C800CAF388
:201B0C008150A8B3401E0BD0401E28D0022127E09402224300600C40AC3F00504010094059
:201B2C00012006F0EBFA05460420294604F062FE042006F0E3FA8542FAD12648056825F0F2
:201B4C007F4005F063FE384614300068036807214FF06022280E98474FF48060206003210A
:201B6C00042004F047FE0AE0026008408C1300500420012104F03EFE174805F047FE203E0C
:201B8C0030681649164B47F6180500F03F0084F8CB0F3A460D8018681068C16802208847E3
:201BAC001248114EC0F8008001213160BDE8F88F6E6208400000094094042A430000204380
:201BCC00FCFCFC0040A00C409813005000803F400A600840A83F0050BD37860070B00C4010
:201BEC002C200940A00100109404604200600C402DE9F04F09AFADF13C0D08900A923888C5
:201C0C0009911E46ADF81800101C08BF002000F08481002700F101094FF0FF3A4FF0010B10
:201C2C00B8466CE1252940F063811078521C0A922D2818BFADF8068005D15846551CADF878
:201C4C00060010780A9530281CBF4246434605D10A9908785A465B46491C0A912A28CDF8B6
:201C6C000080554616D1306804930A99CDF808A0C01C4B1C20F00300001D306050F8044C7C
:201C8C000A93002C0878009418D5ADF806B06442009413E044460AE0610001EBC401401808
:201CAC000A99A0F1300408780094491C0A91302801DB3A28F0DBCDF808A004932E282BD1E5
:201CCC000A9908782A2801F101010A9111D13068CDF80880C01C20F00300001D306050F849
:201CEC00045C002D48BF454608782B46491C0A9111E0454643460AE0690001EBC501401866
:201D0C000A99A0F1300508782B46491C0A91302801DB3A28F0DB02930AB1224604926C281A
:201D2C0004D04C2818BFADF8048005D10A990878ADF804B0491C0A910BA9CDF80C800FAB3E
:201D4C0007916428059300F08B80692800F08880BDF818C0752872D078286ED06F286AD01C
:201D6C00702850D063283DD073281ED009980A990128A1F101010A9115D96B490C68B5F126
:201D8C00FF3F03D0A84288BF6D1C00D8099D029508A80AA932466B46A047C7190A990398C6
:201DAC0001F1010974E040462AE030680A99C01C20F00300001D306050F8040CBCF1000F4C
:201DCC0001F10109014608B955A00146079106F0FDFB0390B5F1FF3F5BD0A842C4BF281CDE
:201DEC00039056E03068C01C20F00300001D306010F8040C5D468DF82C000A990395584695
:201E0C0001F1010945E0082035680490E81C20F00300001D306050F8041C082210230FA8FC
:201E2C0003F0E8FE401E0790402101700A99079801F1010929E0082302E0102300E00A2362
:201E4C000A99306801F10109C01C20F00300001D306050F8041CAA42BCBF2A1C049210E008
:201E6C000A99306801F10109C01C20F00300001D306050F8041CAA42BCBF2A1C04926FF079
:201E8C0009030FA803F0B6FE0790059D281A0390009C241ABDF8065000945DB906E008A899
:201EAC00202109AA05F004FF009C7F1C641E0094F5D503980546401E039075B9BDF8060053
:201ECC00E8B10098401E009019D408A8202109AA05F0EEFE00987F1CF4E70798411C0791C3
:201EEC00017809AA08A805F0E3FE03987F1CE1E708A809AA05F0DCFE7F1C09F101094A46C5
:201F0C000A9812F8011C401C00290A907FF48AAE089808B14146017038460FB0BDE8F08F70
:201F2C00286E756C6C2900C0F08E00002DE9FE43BD4C0F460646F80B80F05081B80880F0D6
:201F4C00CB806069B90F69D2A07A00284AD138094AD3002501266570B448267206F02CFCD0
:201F6C00B3492A4604F14C0006F00DFD607901281FD1A079E8B9DFF8BC82266AD4F81490E7
:201F8C00D8F8000070B106F0F9FAA0EB09004346000B8619E0611868B6EBC01F28BF2562E5
:201FAC0008D2266204F1C8004FF0005106F08CFA31E0667140F60901218794F8451001F048
:201FCC00F00141F0010184F84510658794F8441001F0F00184F84410974EE56304F1380028
:201FEC00306018E0380914D2B80BC0F0148104F1280006F0D1FC061C08D0706830B17568AE
:20200C00F068B6F91C1000222023A84727F4005701E10020A07227F00807FCE0D8B10420F8
:20202C0006F06CF8B8B106F0A9FAA0616169814226BF401A401E401A000BF060F06840F6CA
:20204C00C41100F58D708142F06003D340F2EE22824200D9F1600025D6F818C06561BCF156
:20206C00000F10D094F8450010F00F0F0BD1708C40F60901814206D130466FF480712A468A
:20208C004FF00073E0476D4904F14C002A4606F07AFCA07950B10220ADF80000684605F004
:2020AC0031FEA571BDF80800A4F8A000012060702079A846401C2071192084F8078006F03F
:2020CC00D5FA75692DB1414630464FF080630A46A84727F000579EE004F13008404606F076
:2020EC005BFC061C71D0B06840F603022025531C02E040686D1EEDB260B15DB101888A42EB
:20210C0018BF8B42F5D1F1682CC820312CC129C881E82900B2694FF00009C6F8189070689A
:20212C00C8B1F07F42F00202002300F00700401E09D0401E04D0801E08D14FF0805304E085
:20214C004FF0804301E04FF000534A467568F068B6F91C10A84706F0C7FC0546B4F9360088
:20216C00401C6FF31F30E086206B1F30017801F07F010170404606F037F9284606F0B0FCEF
:20218C00F068B0F99410B4F9362091421DD1217801291AD090F8965095B9056885B1E16875
:2021AC000968B1F1FF3F10D0254909687030B5FBF1F106F091FCF068703006F089FC04E0F7
:2021CC0080F89690484603F0A1FF404606F0E4FB27F0020708B147F002071CE006F084FC4E
:2021EC00014604F12C0006F0D7FB0646B569084606F076FCA8080CD25EB1B069A843B061D1
:20220C00706830B12A46F068B6F91C1075680023A84727F4804727B104F1C800394606F07B
:20222C0053F9BDE8FE83C0461009002039520000957E0000381C002000100440F53D000049
:20224C00DC8E00002DE9F04F0128ADF1140D40F0F280DFF81492D9F8DC00012840F0E9803D
:20226C000220C9F8DC0006F02FFC0290012004F057FC20B101210646C9F8DC10D5E006F0E1
:20228C001FFC03906E484FF00008C0F80080012005F034FF012818BFCDF8008004D1404666
:2022AC0004F098F80120009066486E4CC0F800801934D4F8FF0F112006F0C2FA00280CBF40
:2022CC0046460126102006F0BBFA08B146F002060F2006F0B5FA08B146F004060B2006F07F
:2022EC00AFFA30B1584800685849006B0246088890470A2006F0A4FA0028404618BF012021
:20230C004FF0805B0BF5DC7528B128685049006B0246088890474F4801270760286880698B
:20232C00014646F0200088474B48076006F082FA00F001010191400815D2484806F0F7F990
:20234C008246BAF1040FF8D0BAF1010F06D1DBF8D801406802464148032190474049086878
:20236C0020F003000860404600F080F82868D4F8FF1F806B8047019801280ED0BAF1010F61
:20238C0006D1DBF8D801406802463448394690473349086840F0030008602A4807602868FC
:2023AC0040690146304688470B2006F049FA28B128682649C06A0246088890470A2006F0A7
:2023CC003FFA28B128682249C06A024608889047204807600322C9F8DC201F4BC3F80080B5
:2023EC002868406B0146304688470128F8D1042004F096FB124807601A48D4F8FF1F0168F9
:20240C008909FCD30098012802D1384603F0E2FF06F00AFA082004F083FB06460398C9F82D
:20242C00DC7006F049FB03F043FE029806F040FB02E0042600E00126304605B0BDE8F08FA9
:20244C000C40094000022243B80100100E8C00000A8C000028200860800104430040034080
:20246C002422084014100940400B00202DE9F84FDFF8E8B10746ABF13500DFF8D49100685B
:20248C00800880F0D68005F029FC064677480830D0F8008000254FEA28725FEA985002F121
:2024AC0001020AD2C6F13E0016F10A0F4FEAE000D8BF08208242B8BF021C624BD3F87C01F6
:2024CC00C0F3046006F02CF904461868C0F3044006F026F912198246162A05DA12F10A0FBA
:2024EC00B8BF6FF0090200E01522574B574802F01F0141F4F8511980006810F0030F18BF1D
:20250C000125C00828BF45F002050FB145F00405494691F90700301A052804DA8879A84240
:20252C0008BF888865D0DFF82CE10F2EA6F10F0C25DB0CEB0610A0F1F00C4FEA2C27072F54
:20254C0088BF07273C46062C88BF06245EF82400042303EB84037446E3581B1A03F0FF049F
:20256C00E80824BFC3F307200444A80824BFC3F307400444680828BF04EB136401E00024BD
:20258C0027465EF827E0E8080EF0FF0324BFCEF307200344A80824BFCEF307400344680811
:2025AC0028BF03EB1E63A4B2ACEB0727BAEB020004FB07F404F1800403EB1423D8BF0120A7
:2025CC00342208F0FF0742437A43B2FBF3F04FF6FF72824238BF101C802E80B2888005DA65
:2025EC0016F1800FB8BF6FF07F0600E07F26CE718D71194A12681F280A604FF0000208D372
:20260C0040F2FF11814206D24008521C8142FBD301E01F208880124F0F38000942EAC002C3
:20262C0047EA0200CBF8FB0F0026CBF8FF6FBDE8F88F0D4F0B4E494608203760891D0870EA
:20264C00BDE8F88F3C1100506E620840242208403C1C00209C130050082009403500094099
:20266C0000E7A48030100940FDFDA400AC3F00502DE9F0411C4615468C4208BF854282BF40
:20268C0000230022E5E0002C08BF002D0AD100290EBF00286FF000006FF0000100F0E1F883
:2026AC00BDE8F0815FF000085FF0000E002C08BF8D429CBF2C1C0025070C47EA01470E0C14
:2026CC00B44208BFBD429EBF5FEA044444EA15445FEA0545070A47EA01670E0AB44208BFAB
:2026EC00BD429EBF5FEA042444EA15645FEA0525470847EAC1774E08B44208BFBD4200F22B
:20270C009380870847EA81778E08B44208BFBD427CD8C70847EA4177CE08B44208BFBD42F2
:20272C0066D8070947EA01770E09B44208BFBD4250D8470947EAC1674E09B44208BFBD42DF
:20274C003AD8870947EA81678E09B44208BFBD4224D8C70947EA4167CE09B44208BFBD4227
:20276C000DD8E60146EA5566EF01B14208BFB84201D3C01BB14158EB08085EEB0E0EA601F2
:20278C0046EA95664FEA8517B14208BFB84201D3C01BB14158EB08084EEB0E0E660146EA99
:2027AC00D5666F01B14208BFB84201D3C01BB14158EB08084EEB0E0E260146EA15762F0153
:2027CC00B14208BFB84201D3C01BB14158EB08085EEB0E0EE60046EA5576EF00B14208BF56
:2027EC00B84201D3C01BB14158EB08084EEB0E0EA60046EA9576AF00B14208BFB84201D372
:20280C00C01BB14158EB08084EEB0E0E660046EAD5766F00B14208BFB84201D3C01BB14192
:20282C0058EB08085EEB0E0EA14208BFA84201D3401BA14158EB08085EEB0E0EA34208BFCB
:20284C00AA423EBF2D0A45EA0465240A89D3734642461E4617460B46024631463846BDE8F5
:20286C00F08170472DE9F843814605F0D7FF002100B901216B4E30680028FCD06C4D012422
:20288C002D1DEF6A346009B105F0CEFFDFF89881C7F3072008F1BC01086005F0BFFF0021B6
:2028AC0000B9214630680028FCD02F68346009B105F0BAFFC7F38440C8F8C00005F0AEFF2D
:2028CC000146002001B92046014630680028FCD0ED69346009B105F0A7FFC5F38120C8F83A
:2028EC00D000B9F5C061C8F8B81000F0968098F8D80068B9C8F8D410D8F8C000C8F8C8005A
:20290C00D8F8BC70C8F8C470D8F8D060C8F8CC60D8F8D410D8F8BC60002954BF02206FF072
:20292C000100454605F1C8031A6801EB41014018411000EB917002EBA0021A60D5F8C8104B
:20294C00C5F8C46000291CDD1E293DDDD5F8CC0030B93429B4BF15391E21C5F8C81025E08E
:20296C002A29BABFD5F8C8000B381E20C5F8C800D5F8C4003F28B4BF401C3F20C5F8C4003D
:20298C001FE0D5F8CC00032812D011F10B0FC6BFD5F8C8000B30201CC5F8C800D5F8C400C3
:2029AC000028CCBF401E0020C5F8C400032009E011F1150FC6BFD5F8C8001530201CC5F8CF
:2029CC00C8000020C5F8CC00B5F8C400174E30214FF47F4208230090304604F035F8009469
:2029EC0004214FF400321123304604F02DF8B5F8C80004214FF4F80212230090304604F068
:202A0C0023F8B5F8CC0020214FF440620A230090304604F019F8BDE8F883002088F8D80020
:202A2C00BDE8F88300800C40400B002000A00C4000A00C402DE9F04FADF1840D01F046F9A7
:202A4C0003F0DEFF0026012804D105F09DFC022808BF01265F490868C0F38150012806D134
:202A6C0051F80C0C0127010E07FA01F006435A48614F007807F12C00036803F0C1FF03F078
:202A8C007F03012804D105F07FFC022808BF5B1C524D2B602C463BB1FF2104F140001F4690
:202AAC007F1E00F8011BFBD14D4800684FF0000900F0FF01FE291BD0DFF824C100F0FF0794
:202ACC0049460122FF2F0CD0BB427FD902FA07F73E427BD100F0FF0047EA0909201880F831
:202AEC0040105CF8040F491C00F0FF07FE2FE9D1092001F031FE3A480021242208236060B4
:202B0C0017A805F0D1FF4FF0010804F1240017AA8DF87480414605F0C3FF236843B30027A4
:202B2C0094354FF0040BBA4608FA07F0064219D119EA000F04BF07F0FF0141F4C04105D070
:202B4C00E019274990F8400051F82010254802F09DF8F8B24FF0FF3105F0DEFA2368C5F89D
:202B6C0000A001E0C5F800B07F1C2D1D9F42DBD301A800213022082305F08EFF0025FF20DA
:202B8C00102101AB0990184A009504F1080005F07FFF0DA828220823294605F075FF04F155
:202BAC0060000DAA1395114914952B4605F068FF0F4951F80D0C20F4F85040F4005041F8A7
:202BCC000D0C4746C1F8FF7F0A4E376021B0BDE8F08FC046B43F00504A1C0020941900208C
:202BEC00988D0000007FC76741810000B96B00000D30094008000940181300502DE9F8436E
:202C0C00674C04F1240005F0C7FE15460E46009005F06AFF05F001078146B6F1FF3F0CD1FF
:202C2C00A06A20B9B4F93600401C06B202E0A06AB0F91C60002084F8A300304604F0CCFF29
:202C4C000326002800F09B80A16ADFF84081814269D0009FB8422ED03FB100990A68904209
:202C6C0009D0096800290091F7D1832E41D0484605F036FF3DE004F1A40005F0E3F90098E3
:202C8C000168AA0802D20A6802600846002202600091009818B9484605F022FF28E0C17FAD
:202CAC0041F00401C177684605F09EFB0146404604F0E8FBEDE704F1A40005F0C3F9A808EC
:202CCC003ABF606A006800206062484605F008FF0099C87F40F00400C877684605F084FBDC
:202CEC000146404604F0CEFB009808B1A808EFD28326E07988B9207A012843D0244805F002
:202D0C005BFD022104F1C80005F0DEFB6078012838D0204805F050FD34E004F1C8000221FA
:202D2C0005F0D2FB2EE0A90803D3616A009100266662C27F0121B9401143C17705F0C0FE4B
:202D4C000446002F14BF1448144804F0DBFF484605F0C6FEA80801D3009820B9204605F0FE
:202D6C00ABFE83260EE0C17F41F00401C177684605F03AFB0146404604F084FBECE74846E0
:202D8C0005F0AEFE3046BDE8F883C04640090020391F0000BD490000010002040100010416
:202DAC00100900202DE9F041654C0746A0690D46ADF1180D28B94FF00040002103F0D8FD21
:202DCC00A061002100918846CDF80480CDF808803AA3CDF80C800A46CDF8108005F00AF806
:202DEC0038463AA3801E04D0801E4CD0401E2BD00BE0A069012D14BF37A63CA64546009513
:202E0C00019502950395049546E0CDF8008045460195029503950495A0694146424604F0E8
:202E2C00E9FF009542460192029203920492A06934A3022104F0DEFF01208DF815009DF80B
:202E4C0015000028FBD136E0CDF8008045460195029503950495A0694146424604F0CAFF44
:202E6C00009542460192029203920492A0692BA3022104F0BFFF01208DF814009DF81400C8
:202E8C000028FBD117E0CDF80080454601950295039526A60495A0694146424604F0AAFF8C
:202EAC00009542460192029203920492A0690221334604F09FFF06B0BDE8F0813E3E3E5387
:202ECC005441434B20415353455254002A2A2A4552524F522A2A2A003E3E20494E5445522D
:202EEC004E414C204552524F522100C03E3E20494E5445524E414C204657204552524F5200
:202F0C002100C0463E3E2044454641554C54205350494E4C4F434B2100C046C03E3E20498E
:202F2C0043414C4C2041424F525421003E3E204F5554204F46204D454D4F52592100C04647
:202F4C00080200202DE9F04F8346ADF1140D0393BBF1000F02920E9801910F9C049000F012
:202F6C00AB80081C00F0A880101C00F0A580181C00F0A2800498002800F09E80002C00F069
:202F8C00A080206A002800F09780514D676A281D0068002F00F09080A16A05F06DFD40B2A5
:202FAC00002808BF6FF0020700F0828084F82C002078618800EB80004018216A143080B2CF
:202FCC0088474249086030B92846406805F050FD4FF0FF376CE08A466088DAF800502178AE
:202FEC00237805EB00096088421800EB4106AA18AF1902F1040803EB430283188918EE18BF
:20300C0040182D18204603F0D7FC2078C01C8010C9F800002078C01C8010C8F800002078BA
:20302C000837C01C8010386020780C36C01C8010306020781035C01C801028602278594661
:20304C0009F1040001F0BEFF2278019908F1040001F0B8FF22780299381D01F0B3FF00951D
:20306C00484641463A46334605F0FEFC47B222780398331D194601F0A5FF22780498291D59
:20308C0001F0A0FF22786188DAF8000002EB82025218002102F0DCFB616ADAF8000088470E
:2030AC000B48406805F0E4FCF8B2992808BF002784F82C70384606E01CB16FF0010084F8B6
:2030CC002C006FF0010005B0BDE8F08F444F0020800F00202DE9F04304466668A7680D465A
:2030EC00ADF1340D05F000FD3178012903D105F0F7FC0020A3E04FF0010886F8008005F086
:20310C00EFFC287870706878B07068687060A868B060E868F06028693061287D3075687D87
:20312C007075A87DB075A869B061287F3077687F7077A87FB0774FF00009C6F82090C6F854
:20314C0030904D4675627563B562B56386F82C50102386F83C3086F82D5086F83D50786835
:20316C0001F0FAFA2046FCF763FF204602F012F870B934480068C16838688847786801F0CB
:20318C0081FA05F0B1FC357005F0AAFC2C4655E001A829463022082305F07EFC0694387BCE
:2031AC00CDF80090284A0990B96801AB06F1680005F06EFC01A829462822082305F064FC36
:2031CC0005942249386901AA2B46079006F1840005F056FC01A829462422082305F064FCEB
:2031EC008DF81C80B07838B906F1B800294601AA05F056FC16483061707838B906F1D400E6
:20320C00294601AA05F04CFC1248F06001A829462422082305F024FC0695ADF814500E4908
:20322C00079406F1F0000A2201AB05F015FC0B4A06F154000421234604F08CFD20460DB054
:20324C00BDE8F083D0010010D14400009D6A00000B89000003890000B15500008986000018
:20326C002DE9FC415E4C574D574EDFF860815A4F94F8E410481E0B2861D8DFE800F07B2CEB
:20328C0043062343062343067664042907D001220A2945F8212C14BF0220032004E0202106
:2032AC00012045F8211C024684F8E200002045F8390C0827C5F8FF7FC5F8F37F45F8392CE4
:2032CC00BDE8FC81052914BF09200620002584F8E400356070E094F8E1700120383D002F64
:2032EC00C5F81B0004BF0620002102D00021F160032084F8E400032045F8010C3160306883
:20330C00800859D294F8E400012503280DD00021404660220523009103F096FB94F8E4007A
:20332C00062814BF0A200720D1E702200090002160220523404603F087FB0420C7E705F038
:20334C0087FBBDE8FC812249002622480E60012505600E2001F096F9022004F087FA84F808
:20336C00E45084F8E360BDE8FC81002038600C2578601FE0194800680068014620208847E5
:20338C002C3D41F61D560F2000214FF4C072072345F8010C4046C5F803600225009503F080
:2033AC0053FB404600214FF4C072072303F0C8FC0120386084F8E45004F1780005F088FB68
:2033CC00BDE8FC8139400C4038600C4000A00C402C500C4004800C4034600C40A001001001
:2033EC00400B00202DE9F84F994692468B46064605F07AFB564C0090B4F93610B4F93400B5
:20340C000AAF401A40F6F8710140082980F29080B4F9340004F59875401C6FF31F30A086E0
:20342C000820B4F93480EB7F33F07F0304D0401E05F12005F7D1002506F1700004F002FE53
:20344C00C5F808B085F81EA0C5F80490A5F81C804048EE6097E80C002021002719401040B4
:20346C0005F1100383E8030004F12400EF770368002B50D1294604F005F8002851D0A6F84C
:20348C009480E87F40F08000E87786F89670607A40B1607830B10120A0726772A7712079D1
:2034AC00401C2071009805F01BFBA06A00284BD1607860BBE079012846D005F015FB064646
:2034CC00207A00BBA86803F0BBF9244A2249E3681268086040B9304605F002FB04F1C800B0
:2034EC00042104F0F1FF2FE00968DB6804F1A400C91AB1FBF2F105F0EFFA04F1A40005F07D
:20350C00E7FA30461EE0164901200870F9E7192005F0ACF818E004F12400294603F0B2FF7C
:20352C0048B9B4F9340000F6FF706FF31F30A0866FF0010805E0A6F89480E87F40F080004B
:20354C00E877009805F0CCFA4046BDE8F88FC04610090020F1EFFF9F381C0020DC8E000060
:20356C00341C00202DE9F043584CE2680746880FADF1140DC0F09A805068406808B180474B
:20358C00E26851684B4E886808B9CD687DB13568002DFCD00022326010B18047E0684168AC
:2035AC00C86800B180474A48503804F0ABFB4FF00008C6F80080404846F81C0C3F4805F0B4
:2035CC00FBF8424640F60A01218704F13800BD686287037B03F0F00303738146C4F83C8027
:2035EC0094F845006A8000F0F00040F0010084F8450000E01D466B6813B118888142F9D12B
:20360C00C5F80490687B00F0F000687304F1240005F0C2F980680088C91F81421ED0491C78
:20362C0081421BD03B8CCBB197F82C0097F82D30C7F8248000F0F00087F82C0003F0F00015
:20364C0040F0010087F82D0007F12001E16399F80D007A8400F0F00089F80D001848016851
:20366C008468C368009110226946406B019420F0784040F0805003901248029301F0A2FC9C
:20368C0030680028FCD0C6F80080012004F036FD012808D0687B00F0F00040F0010068733C
:2036AC00094805F089F8B86846F81C0C05B0BDE8F083C0461C10044001010E04391F000002
:2036CC004C13005018000021356400001009002051000706F8B5414C201D0368B3F1FF3F02
:2036EC0008BF002303F08CF9002876D13C4E20683468070F04F0FF04802C28BF002403F088
:20370C007FF94FF0FF3578B1401E07D0401E012802D9801E13D014E08FB112E0381C5CD0CB
:20372C00801E0ED114340BE03846401E55D0801E53D0001F51D0401E03D1163400E00A3431
:20374C0065B2162D49DB27482749002501270560264E0F60264C376020680028FCD1274A74
:20376C00161D2449244F306820F0030001433868C0080CD2106810F0030F0AD041F003005D
:20378C003060106800F003000328FAD101E041F001011B483160006820B11A4800681846C3
:2037AC00FDF7FEFF184819490560194F0A686FF35B4247EA0200086016490868C0F30130BE
:2037CC00012806D10A681448104040F400320A60086020680028FCD1F8BDFEE718130050F5
:2037EC00A0100050840460425C600C40082204430C00684204000020B03F0050004003407E
:20380C0080012843000120438C210840482003400000390104000940FFFFFCFCF0B54C4CF2
:20382C006179ADF12C0D012950D002291DD003297AD10179092915D107899FB1C06841789F
:20384C00007800EB0120A082002700973D460195029503950495A06934A33A46032104F09F
:20386C00C9FAA572002060715EE00179072912D107895FB1C2685378117801EB03212182D5
:20388C009178D37801EB032161820179072902D140781A2801D0012946D1208A618A00288F
:2038AC0042D0ADF814000322ADF8161002206271F1278DF81800FF268DF8197021788DF846
:2038CC001A60342205A802F0E1FF2DE0007903282AD120480088ADF8140017270097002241
:2038EC000192029203920492A06915A3032104F081FA0226E58966712478142004F01EFBCC
:20390C00071C11D00321062204F06AFE3D81BE7205A8F860204604F093FA387404F01EFB5C
:20392C000D4A394603F0DEFB0BB0F0BD53696D706C652053766320466F756E6400C046C0D9
:20394C004D54552053697A653A20256400C046C008020020D08D00007B8900002DE9F84F19
:20396C005FEA00091C46924600917DD0081C7BD0BAF1000F78D0002C7BD0206A002873D0F4
:20398C003F4D616A281D006800296DD0A16A05F073F840B2002808BF6FF002055FD084F854
:2039AC002C002078618800EB40004018216A0C3080B288473149AB46086030B9DBF8040070
:2039CC0005F056F84FF0FF3549E08846638860882178D8F800605A183518B71803EB4100D5
:2039EC003618204602F0E8FF2078C01C8010286020783F1DC01C8010386020780836C01CF8
:203A0C008010306022784946281D01F0DBFA28463A463346014605F017F845B2227800986B
:203A2C003B1D194601F0CEFA22785046311D01F0C9FA22786188D8F8000002EB42025218EA
:203A4C00002101F005FF616AD8F800008847DBF8040005F00DF8E8B2992808BF002584F846
:203A6C002C502846BDE8F88F1CB16FF0010084F82C006FF00100BDE8F88FC046444F00200A
:203A8C00800F00202DE9F04F0120ADF13C0DADF81A000826ADF8186006A803F06FFE0025D1
:203AAC003F4C8DF834509DF81C00607008986060304604F043FA071C0CD00121122204F095
:203ACC0067FE04F04BFA0DA90123364A0091394603F026FB9DF8340004F116021021207027
:203AEC00022003F003FD04F126020320102103F0FDFC042004F10C02014603F0F7FC4FF0B5
:203B0C00090B4FF0030A4FF6FF770A20ADF80A00ADF808604FF0FF33039302A803F02EFEC8
:203B2C000028F2D10C95ADF82460ADF826B009A803F024FEDDF82C800028BDF828209DF848
:203B4C002A10CDF83080E0D1102A4FF0010917D16078884214D1404601888F4208D00178D6
:203B6C00D02902D100F022F800E04846814607E04088C00B04D30C4A0420014603F0D0FC5D
:203B8C000C980028C1D0B9F1000FBED0ADF81060ADF812A0CDF8148004A803F0EFFDB4E78A
:203BAC008406002081870000900600202DE9FF410446DFF81481A078002860D0401F44D0A2
:203BCC00401E35D0801F20D0401F6ED14546E81C0078012803D0002867D100200CE0E08872
:203BEC00ADF802002789ADF804706689ADF80660A589ADF808500120A188ADF800108DF8A0
:203C0C000A00684604F0DEFD4FE0A688257B0C2004F094F9071C48D00121162204F0B8FD29
:203C2C003E81BD7204F09AF9394603F093FF3CE0A5880A2004F082F9002836D00121152296
:203C4C0004F0A6FD07460581ECE7607868BBE6786589142004F072F9071C26D001211422D0
:203C6C0004F096FD3E72201DF8603D820822BA7404F074F9134A394603F034FA15E060782A
:203C8C0098B945460220102105F1160203F048FC0320102105F1260203F042FCE01C01689C
:203CAC0005F1100739608088B88045460835286820B1016811B12046884700E001200090F8
:203CCC00BDE8FF8157870000840600202DE9F041444C94F8E700ADF1280D00286FD1394F1E
:203CEC00387B01250021242284F8E7507E6884F8E6000823C4F80C6101A804F0B1FE0026B7
:203D0C0004F10C00069601ABADF814602E490796324604F0A1FE2D4904F1300001AB324657
:203D2C0004F09AFE2A4904F1540001AB324604F093FEB868014628468847DFF89C80254882
:203D4C007B7B0078D8F80410C1F381571BB1032F03D184F8E150032F16D0022F14D0012F9D
:203D6C0026D103201D4C009031464FF040521C23204602F069FE009531464FF400720923F1
:203D8C00204602F061FE13E0022003F087FD032F0CBF4FF47A7142F21071114800685434AB
:203DAC00B1FBF0F1204604F097FE204604F090FED8F80000C00802D2304603F06FFD0AB098
:203DCC00BDE8F0817C8E00000740000021550000D95700004A1C0020B03F005000A00C4019
:203DEC00DC8E0000400B0020F8B504F0E5FA3F4E3D4F0446A00822D3B96A01B33D460020E8
:203E0C00A8628A69086906F108032040104340F0020088610A6918689043186001F1100018
:203E2C0090E80C0030681A1C9043306005F1300003F028FB022105F1C80004F045FBB86A4E
:203E4C00A10815D200F110020CCA002122400B40002B08BF002A0BD0016985690C40F8622A
:203E6C002C434FF48041846107F1C80004F02CFBB86A002837D107F12404204604F08CFDAE
:203E8C00051C30D0F868E968884226D1A86802F0D7FC17490860E0B906F1080128690A684A
:203EAC0010430860326805F1100393E80300081C1043306000233361A86846F80C0C06F1FF
:203ECC00100000680028FAD0204604F08DFABD62F8BD086802F01AF9F8BD07F1C8004FF48A
:203EEC00805104F0F1FAF8BD100900200C100440381C00202DE9F0430746ADF11C0D04F0F3
:203F0C009FFD03F06BFC4FF000090646CDF80C9004F0AEFC30F0010002D00398B04202D1B9
:203F2C006FF0040066E078684C4658B1B0F1FF3F05D004A903F03AFC30B1804659E04FF0A8
:203F4C00FF3000E02046049004F076FD049D4FF001082D1802E00A463BE00493706804995E
:203F6C0004F08AFD00282DD0684602F009FAD8B99DF8040005A903F0B1F988B9BB68BDF864
:203F8C0014009DF80610029A984748B1BDF814009DF80650B881029BBD73C8463B6111E08D
:203FAC00029903A803F0AAFD0498641CB0F1FF3FD4D00028D2D004F03FFD2B1A02D00498C9
:203FCC009842CAD2039F04F025F906F1080547B13A4652F80C1C0029BDD1296842F80C1C13
:203FEC002F6004F089FA24B1706804F041FD641EFAD1404607B0BDE8F08370472DE9F0472A
:20400C0007467D68D7F8089090460E4604F06CFD8246A86A002864D105F1F00004F012F859
:20402C000024EC772E6250466C6204F059FD04F05BFD2F4E3378824623B9022003F02EFC58
:20404C0001203070504604F04BFD2A49086840F4807008603846414603F0D4F8A862C0B90B
:20406C003846414602F05EFCA878D0B9A96805F1B80004F001FDE8B9AC621020E8774946BC
:20408C00284600F05BFE04F02FFD8246307840B323E0D9F80010886B40F020008863A878A8
:2040AC0010B12046BDE8F087A96805F1B80004F0E3FC10B1686ABDE8F0873846414602F079
:2040CC0031FC1020AC624946E877284600F036FE04F00AFD8246307818B1022003F0C6FBDF
:2040EC003470504604F0FCFC4FF0FF30BDE8F087491C0020301000402DE9FC4191EA030826
:20410C004CBF4FF000484FF000084FEAC32545EA52554FEAC2264FEA43077F0D11BF45F08E
:20412C00004500210020BDE8FC815FF4E06E1EF1FF0E774555D04FEAC12343EA50534FEA07
:20414C00C0224FEA4104640D11BF43F0004300210020BDE8FC81744543D0E419A3FB05016C
:20416C00A3FB06E7A2FB06631EEB030E57F1000751F10001A2FB05631EEB060E57F1000785
:20418C0051F10001FF1851F10001C01951F100014CBF4FF4806E4FF4007E10EB0E0051F112
:2041AC00000148BF641C01D4400049415FF44077FF37E41BDEBF00210020BDE8FC8117F581
:2041CC008067BC420DD24FEAD02040EA41504FEA41014FEA113141EA045141EA0801BDE8DC
:2041EC00FC810020FF21C900C91D090551EA0801BDE8FC812DE9F04390460A68D8F8004032
:20420C001678814600271D463846ADF1140D531C242E0B6053D112F8016F5B1C4C2E0B6050
:20422C000ED1AA68E41C24F00304241D54F8040C494601F0C7FF2968EF600127091A2960CF
:20424C00462E1AD1E41C24F00304241D54F8040CE41C029024F00304241D54F8040C0027CA
:20426C0049460390AA68ADF8047001A800F0F8FE2968EF600127091A2960532E1FD1E41C31
:20428C0024F00304241D54F8040CE861C8F80040288B0090A968EA69D9F800004346FDF71C
:2042AC00A7FCD9F80040002714B10119C9F80010D8F800402968EF60091A01272960662E0F
:2042CC000AD12B8B23B9E41D24F00704083403E0E41C24F00304241D1FB9E9690E700127FA
:2042EC00EF60C8F8004005B0BDE8F0832DE9F041334832490860FEF79DFB4FF08055D5F883
:20430C00D801304C036801210A4620469847D5F8D80142680121204690472E4C00250320A9
:20432C0004F1180141F80C5F401E8D60FAD1241F062004F14C010A46401E22F80C5BFBD103
:20434C000820214F0880214A8F602149121D22F00303CF1A6762E3612362E66904F120083F
:20436C00944618460A4601E026F8025BB142FBD8B910E82700EB810121F8045C4FF6FC7612
:20438C001F8006EA0C0300F1E807D21A676106EA0201EC39A0F8E810284601F0D5F9A06109
:2043AC00D8F80000606101F05DFC02F089FD02F021FE04F03DFB2846BDE8F081E80F0020C6
:2043CC00B12D000000400340A97F00004B1C0020D03D0020540C0020F0B5ADF1340DFFF79A
:2043EC0075FC304908682822082340F00200086001A8002104F048FB2B4E2C49052400230D
:20440C0001AA079406F1C80004F03AFB00213022082301A804F040FB0025FF271921244AF9
:20442C00ADF81C5001AB099706F14C00009504F02FFB2822082301A8294604F025FB1D4916
:20444C00079406F1FC0001AA2B4604F019FB01A829463022082304F01FFB0124ADF81C40D5
:20446C00099706F168001A2101AB134A009504F00FFB12492A4606F1A400134604F0ECFAC1
:20448C000F4804F099F986F8A3507571F57135727572B5727561B4714FF6FF70A6F8A000D4
:2044AC000DB0F0BD00200940100900209D840000957E0000E54B000089640000D97D00003D
:2044CC00BD4900002DE9F8430746D7F80880D8F800007D68066C16F4F06F466425D1F009AC
:2044EC0011D2700951D395F83C00AC6B401E844288BF041C3846214602F0D6FDA86B001BED
:20450C00A8630DD041E0A96B384602F0CDFD95F82D10A86311B9002837D101E00020A8635D
:20452C0005F1840004F080FA2FE0F00A0ED3D8F80000002144684160A96B04F00F042029FB
:20454C0088BF2021384602F0AFFD1AE04FF000094C4602E0A86B401EA863A86B88B13846AF
:20456C00012102F0A1FDD8F80000446814F00F04C0F80490EED0286B401E2863686B401E33
:20458C006863EC77384601F0D9FBB0090BD3A96A49B10E46384602F035FEA86218B93846AA
:2045AC00311D02F0BFF9BDE8F88370472DE9F04105463148AF686E681CC88846ADF1480D83
:2045CC0069461CC11CC81CC10DC881E80D007868002424220823069021468DF8014009A84E
:2045EC0004F062FA012109AA301D8DF83C1004F057FA98F80000401E08D0401E04D0401ED1
:20460C0014BF201C11A002E012A000E013A030621A483A680068904209D91948910001EB17
:20462C00C2014258D26840186946904700E020463060002808BF251C03D00AA1122204F04D
:20464C004DF9284612B0BDE8F081C0461B5B324B00C046C01B5B304B00C046C01B5B314B5A
:20466C0000C046C01B631B5B324A1B5B3130721B5B31313B314800C0508D00000C09002051
:20468C00008E00002DE9F843044604F02DFA81462D48021992F8ED10491ECFB2002F82F85B
:2046AC00ED704BD12B4D05EB84052E78698836F07F0788461AD1F10911D24FF08054D4F8CC
:2046CC00B801806901464046884704F5DC742068406B0146404688470228F8D121E000EB99
:2046EC008800D0F80011002088471AE04FF08054D4F8B801006A014640468847D4F8B80141
:20470C00806A014640468847D4F8B801006B01464046884701210D4A0D4811600168890842
:20472C00FCD306F03F003F2801D0FFF7ABFF687800F03F003F2801D0FFF7A4FF484604F02F
:20474C00CFF9BDE8F883C046400B00202820086028200840E08B00002DE9F041064604F0C2
:20476C00C3F92D4D8046A91991F8ED00421C002881F8ED204AD1294C04EB8604277807F04E
:20478C003F003F2801D0FFF7E7FF607800F03F003F2801D0FFF7E0FF668837F07F001AD127
:2047AC00F80911D24FF08054D4F8B801406901463046884704F5DC742068406B0146304603
:2047CC0088470128F8D121E005EB8605D5F80011012088471AE04FF08054D4F8B801C06907
:2047EC00014630468847D4F8B801406A014630468847D4F8B801C06A014630468847012109
:20480C00074A0848116001688908FCD3404604F067F9BDE8F081C046400B0020E08B0000E5
:20482C0028200860282008402DE9F041304C0546A0781F4616468846ADF1380D012803D098
:20484C00FFF7CAFD0120A070B8F1000F09D0C5F8048036B1AE6004F047F9E17819B104F04C
:20486C003FF900203CE0491CC9B2E17004F038F901243FB91C494CC909A84CC006C909AF87
:20488C0080E80600386828607868E860387A2874F8686861386900B1A8610021782205F1CB
:2048AC00200000F0D5FF684600212422082304F0FBF88DF8184005F1380000216A4604F011
:2048CC00EFF8684600212422082304F0C9F80749069505F1700000226B4604F0BDF82846B5
:2048EC000EB0BDE8F081C046308E00003989000010090020F8B503F091FF03F09BFF044612
:20490C0004F00C000C2845D0E0081ED203F090F9234E376805460120014603F0D1FB3168D3
:20492C006943884211D21F4C8220B0FBF7F0291A204604F0D1F8204604F0CAF80120FDF7DC
:20494C0081FC204603F07EFB25E0200922D21648610939BF016821F00101016841F0010102
:20496C0002460160D2F898004FF0805440F00300C2F89800D4F8B8018069014620208847C4
:20498C00D4F8B801094C806B2168804701202060206800E030BF03F047FF01F005FAF8BD20
:2049AC00DC8E00004C0B00208C2108402C200940042998B54BD1264C04F1240003F0ECFF81
:2049CC0040B994F8A300400838BFE06804D3D4F8880000E0C068E06041681E4A09781160A6
:2049EC00416812680978914207D087692FB16FF0FF0100224FF00073B847022002F04EFFFA
:204A0C001120FFF7A9FE0120E071E168087C10B16079012803D00E20FFF79EFEE16849682D
:204A2C000D488F680FB9CF681FB10021C1610B4F07600B4A40F2FF71116000278761094982
:204A4C004161094803F0B8FE192003F0E9FF98BD10090020D0210840001004405100070621
:204A6C000000046002000040713500002DE9F0430F46014648688968CE68B1F810808968F8
:204A8C0099461446ADF1140D0546001D03F0F4FF00283AD0FF2F10D0641CA8F102017B1CD1
:204AAC0030461BA2009403F0E9FB2B6A04462BB119683019241D016000E000240D980E9BD3
:204ACC00A8EB040100900F9A10980193891E0C9B02924A460390301903F0D0FBFF2F04443B
:204AEC0006D10D20671C0A2330557C1CF35504E00BA109883019A41C018028683146224677
:204B0C0003F0ECFE281D03F0B3FF05B0BDE8F0831B371B5B3130721B5B25643B256448004F
:204B2C001B3800002DE9F0414568876814460E4603F0DAFFA96B29B103F0D2FF4FF0FF3099
:204B4C00BDE8F081AC632E630024EC776C6303F0C7FF03F0C9FF1E4E8046307820B90220F4
:204B6C0002F09CFE01203070404603F0B9FF1949086840F4007008603968886B40F4FA60AB
:204B8C0088636878002818BF201C1ED1696805F1D40003F071FFB8B9AC633968886B20F4EE
:204BAC00FA60886303F0A0FF0746307818B1022002F05CFE3470384603F092FF1027696B35
:204BCC00286BEF77401A2863686BBDE8F081C046481C002030100040F8B503F085FF2A4C5E
:204BEC000746D4F89C0010F4602F2CD0D4F89C00400CC5B2680807D2A80803D2E80828BF95
:204C0C00022502E0012500E000256E1D70B201F05FFCD4F89C3005F111010120884023EAC5
:204C2C0000013846C4F89C1003F05AFF04EB8500D0F88C7057B1D4F88800314600224FF0C9
:204C4C000063B84702E0384603F04AFFD4F89C0020B104F1FC00002103F036FC94F8A300AB
:204C6C00800810D3D4F898703FB1D4F888006FF0010100224FF00043B84794F8A30000F082
:204C8C00FD0084F8A300F8BD10090020F8B50D46EEB2290824BF25494D40254AB300D15804
:204CAC0085EA01040440C4F3006C224C00EA050781433C4000F4E0272143B7F5E02F01D17D
:204CCC004C0E15D300F4E0245CEA040710D001F4E027B7F5A02707D0B7F5803704BF21F4DC
:204CEC00003141F4A02103E021F4803141F4C021114CD150C10D04D3A4F18001C5F38052FF
:204D0C008A55000E11D303F0EFFE290E03D201210022B14002E00121B1400A465034236841
:204D2C008B431A43226003F0DBFEF8BD006000A000100840FF7F077F8020024070B50D4683
:204D4C0029680646886B20F02000886323482C7D0168A14213D900EB8400F36CD0F89410D6
:204D6C008B420CD103F0C0FE1D4BD0331A680121A1408A431143196003F0B2FE2C7DF06C9A
:204D8C002146012202F04AFBF06C297D002202F0F7FEF06CA97D002202F0F2FEB078012864
:204DAC0006D006F1B8004FF0FF3103F065FE03E0296888690009FCD2F06C297D102202F03B
:204DCC00DFFEA97D0020FF2902D0EA7DFF2A00D118B1F06C112202F0D3FE70BD9419002034
:204DEC00002002402DE9FF410D4614464768244986680A6801A802608A8889798280A542BE
:204E0C008171A8BF2C1CB168381D804603F034FE48B300200090318AF0686D1C13A22B461F
:204E2C0003F02CFAA11CA9420ED9491B328A121A022A09D9F26801AB1C688218801D9B8880
:204E4C001460491E9380F1D1F1680CA2128841180A803B68F168851C2A46184603F03EFD79
:204E6C00404603F005FE0090BDE8FF811B371B5B3130721B5B25643B256448001B3800C03C
:204E8C00C48E00002DE9F04114460F4603F02CFE1FFA80F81F480068007808B903F0ACF970
:204EAC00E7B138684FF0FF3518B140280AD3810B08D17E681EB1310A04D0310E02D1B968D1
:204ECC000F2908D93DB10CB1284620700820FFF7D9FB002418E07968BA6803E04FF48070DD
:204EEC000122014602F0AAFC0B49012008600B4908684008FCD30A48006841680220884798
:204F0C000CB1002121700446404603F0E9FD2046BDE8F0818C8E0000A802504208800240D1
:204F2C00CC010010F0B520480127F84201D001F0D3FC204D204F214EBD4206D203CD04781A
:204F4C00A4003459401CA047F6E71D48002800D08047164D164FBD4202D210CDA047FAE790
:204F6C00F0BD03251BE0416808300A1C2A400BD11A1C2A40AB4305D0046804300C60043164
:204F8C00043BF9D1131C05D0047801300C700131013BF9D1021C2A4001D0A84304300368B4
:204FAC00002BE0D17047C046FFFFFFFF0000000000000000A8910000089200006891000084
:204FCC0059C50110002A4AD05FEA000C8B071CD1830722D1102A08D370B4103A78C978C005
:204FEC00103AFBD270BC103238D0042A2CD3082A05D30C2A24BF08C908C008C908C008C9C5
:20500C0008C092072AD0920F22E00B780370491C401C521E22D08B07F7D1C30714D18307DA
:20502C00D8D0121F12D308C903801B0C4380001D121FF8D20AE008C903701B0A43701B0A25
:20504C0083701B0AC370001D121FF4D2121D05D00B780370491C401C521EF9D16046704793
:20506C002DE9F843002A894607464CBF47F6FF75151C002F08BF002032D03888002808BFD9
:20508C00002403D02A4600F0B3F90446281B26DD388828B1291B484612A201F0EDFD04195A
:2050AC00B868E0B1D7F804802E1BB8F1000F0DD0404603F08BFA401DB04207DC291B484600
:2050CC0009A2434601F0D8FD04192E1B122E06DBBB68291B484606A201F0CEFD0419204667
:2050EC00BDE8F8833A2000C0222573222C2000C06C696E652025643A2000FEE72DE9F843A1
:20510C00224D884606464FF0FF3105F12400814603F0B2FC00200CE0FF2909D02A688A429E
:20512C0004D905EB8101D1F894700FB1002627E0401CB8F1000F03D018F82010FE29EBD150
:20514C000024346074600127B46011E0FF280ED005EB80000B787268C0F8946007FA03F018
:20516C00104370600A680A49304602F01FFD641CB8F1000F04D008EB84010878FE28E5D1D7
:20518C00484603F075FC3046BDE8F88394190020007FC767B0B5456884682349607DA27D9B
:2051AC00ADF1180D40F000400090207D0027FF2A41EA000001904FF0020002D0E27DFF2ADC
:2051CC0000D13FB1E37DA07D1943039140F0004002900420FE214DF8201005F140006946F6
:2051EC00FFF78CFFE864002808BF381C1AD0617D0F2202F0C5FCE86C217D102202F0C0FC15
:20520C00A17D3846FF2902D0E27DFF2A00D140B1E86C112202F0B4FCE86CE17D122202F0A1
:20522C00AFFC012006B0B0BD0000C0A0F8B50546880F3CD31E4E30681E4F20F0020040F4BE
:20524C0000703060032147F8041C41F23004BC60012139605022BA6039604FF4CA63BB60D1
:20526C003960154847F80C1C03F0A6FA134FB81C0078012803D005F1380003F0F9FB00244F
:20528C000220346002F0F2FA1120FFF7FBF9287C10B90E20FFF7F6F93846094A0472117803
:2052AC00447221B11470C830042103F00DF9F8BD000004600C410440BD49000010090020D7
:2052CC00341C00202DE9F8432020EFF3118780F31188214CA068012103F09EFB4FF00109CF
:2052EC004FF0000865692168A4F81C906A1A2168A4F81E80461B401A904227D387F31188DB
:20530C0040464519361A4846294603F081FBB042F7D92021EFF3118781F31188E18B0129C1
:20532C0003D14046294603F073FBB0F1FF3F06D0A169801B814238BF081C411901E0A069BB
:20534C00291803F061FBA4F820902560A4F81C8087F31188BDE8F88378010020B0B504462D
:20536C00A768ADF1280D5FBB0C2000F0EDF9071C1DD0684600212422082303F071FB002351
:20538C0006976A466168ADF810301848059303F037FB386070B90820ADF824000C25ADF861
:2053AC00265009A802F0EAF9384602F091FB6FF0030018E0E06878602069B860A7600AE0DD
:2053CC0002F028FF0546386802F03CFE2069B860284603F091F83868616803F07DFB386892
:2053EC0003F076FB00200AB0B0BDC046DD8700009EB513460C461F4A1D49128809888242D0
:20540C0006DB13A219460346204601F035FC9EBD194A1788814207DB02F024FE426819469B
:20542C00204601F029FC9EBD002F08BF0BA2E9D00094002B48BF47F6FF73104F00210193A4
:20544C003C6802910E496A46A04702989EBDC0467B6D6F64756C652325647D007B6D6F643B
:20546C00756C652D726F70653A25787D00C046C0D28E0000F88E00008A050000F48E0000E6
:20548C00C9790000F0B5204CE078A769ADF11C0D012804D11D49052001F092FC29E0012646
:2054AC00002504F19400E67038226570294600F0CFF938460722314603F078F92A46009202
:2054CC000192029203920492A0690BA3314602F091FC02F0E7FA8DF8140004218DF8166035
:2054EC0003208DF817500A4A8DF8150005A802F07FF807B0F0BDC046446973636F766572E4
:20550C00696E672E2E2E00C00802002051890000578900002DE9984303F0E6FA1F4CDFF80D
:20552C007880814604F1E000007850B94446A0680146022088470746102001F0F1FA2FB345
:20554C0020E000F087FD002820460FD1144909683222B2FBF1F101B9012100F13004204645
:20556C0003F0BAFA204603F0B3FA0FE044460022A16880F8E020022088470746102001F0F7
:20558C00CFFA1FB1A068014603208847484603F0A7FABDE89883C0467C8E0000400B0020C8
:2055AC00DC8E00002DE9F04107467868BE680446F03002F047FD30681B4980690968C0F332
:2055CC00C00008BB03F090FA184D8046287820B1022002F04BF900202870404603F080FA20
:2055EC003168134D886B20F020008863286820F480702860606A216A091A21622369626A29
:20560C0038469847BDE8F0814FF4FA70B0FBF1F1012998BF0121F034204603F05DFA2046F4
:20562C0003F056FABDE8F081DC8E0000491C0020301000402DE9F04106467568B46803F017
:20564C0053FAA96A39B921688969090903D203F047FABDE8F0810027AF6203F041FAA17DBC
:20566C003846FF2902D0E17DFF2900D118B128462146FFF763FB2168886B20F020008863C6
:20568C000D49086820F48070086003F02DFA0B4C8046207818B1022002F0E8F82770404623
:2056AC0003F01EFA686A296A091A29622B696A6A30469847BDE8F08130100040491C0020E8
:2056CC0070B51E4DAC68064602F052FE4FF47A71001B4843030C02F001FB2969401A48BFC8
:2056EC00404240F6B8319B19994210D306280EDAE9688C420BD8286848B1114A091B5143D7
:20570C008A0C02EB1141884288BF011C08E00D49486840080ED208687D2100F0FF004143E3
:20572C00C82905D3B1F57A6F88BF4FF47A6103E0C82101E04FF4FA61084670BD101C00208E
:20574C0040420F00AC3F0050F8B5001D84B214F0030002D0241A241DA4B202F05BFD1A4A15
:20576C00102C014657691161C8BF9769388800221646C30BDD0319D126B984420ADD3A46FF
:20578C00012617E01388C3189BB29C42138011DC174618469FB1001B80B20428B4BF3C8803
:2057AC00385344F400443C803F1D08E080F40040002680B2C71938880028DAD100270846E2
:2057CC0002F09AFE3846F8BD500C00201CB5042002F094FC022818D0032816D01648006824
:2057EC00C0F38150032814BF41F288324FF47A721248144C016854342046B2FBF1F103F06C
:20580C006BF9204603F064F91CBD03200C4C009000214FF040521C23204601F015F90120C7
:20582C0000214FF4007209230090204601F00CF9022002F01BF81CBDB43F0050DC8E0000C1
:20584C0000A00C40400B0020002213460A46194671B510F0030F0BD0002A82BF00F8011B29
:20586C00B2F1010210F0030FF6D1002A08BF71BD11F0FF0141EA0121042A18D341EA0141AA
:20588C00082A0FD30E46102A08D30C460D46B2F10F0312F00F0272C0103BFCD812F0080FA8
:2058AC0018BF42C012F0040F18BF40F8041B12F0020F18BF20F8021B12F0010F18BF017047
:2058CC0071BD7047F8B50E46044603F0F9F80546304602F081F9071C03D1284603F0ECF83F
:2058EC0026E0F87F10F0070F1BD113487968884202D079682166786002214FF0E04204F18C
:20590C00580080E80600284603F0D6F804F138004FF0FF3103F0B0F804F1680797E8030069
:20592C00F8BD284603F0C8F8F87F10F0070FFBD102200021F8BDC0461967000038B5054676
:20594C0001201A4C68712879B0B902F063FC2178002904BF6FF00704051C15D0491EC9B2A9
:20596C00217039B902F0C8FD606802F03FF80020687118E0054613E002F04CFC05462078A4
:20598C00FF2805D16FF00604284602F0B5FD0BE0401CC0B20128207002D1606802F03DF84F
:2059AC00284602F0A9FD0024204638BD700F002070B50646B079F4680628A4F10C042CDAE8
:2059CC003079062829DA02F025FC154DB27991000C3501EBC20169184968E1B102F08CFD81
:2059EC0030792071B0796071307AA071B179880000EBC1002818F1684068083002F07EF86D
:205A0C00B179880000EBC1002D186868406803F02FF8002070BD02F06FFD6FF0020070BD0C
:205A2C00900C002038B519491A4C00204822C1F8F30F94F8E200C1F8FF2F20B3012817D06C
:205A4C00022807D003281ED151F8310C00F05EF80B2016E051F8315C2846FCF703FF40F2C7
:205A6C00FF50A84202D8801CA842F1D2082008E051F8310C00F090FA054800780028E7D00A
:205A8C00052084F8E400FDF7EBFB38BD39400C408A8E0000400B002038B544688568E06C8C
:205AAC0002F0FFFA296817488A6B1040886316480068C168286888476868FEF7E3FD04F1E7
:205ACC00680002F099FF04F1840002F091FFA07818B904F1B80002F087FF607818B904F121
:205AEC00D40002F081FF04F1F00002F079FF02F0FBFF0021217002F0F3FF04F1540002F048
:205B0C005DFA38BD0DF8FFFFD001001038B51A4CA0F5C060D4F8B810C4F8D4000029B8BF7D
:205B2C0049420028B8BF4042814220DAB4F8BC00124D30214FF47F4208230090284600F0BB
:205B4C0083FFB4F8C00004214FF4F80212230090284600F079FFB4F8D00020214FF44062AC
:205B6C000A230090284600F06FFF012000E0002084F8D80038BDC046400B002000A00C40C9
:205B8C002DE9F8438146EFF31188202080F31188174D154C134F012605F11C000660A4F1BF
:205BAC0014000660F86A016A14208847D9F81000810C14BF000C0420206038680268232150
:205BCC00002090470948066054F8180C20F4C02040F4803044F8180C2E6088F31188BDE81C
:205BEC00F883C046840100101820094080022443000024432DE9F8430024002B16460F4661
:205C0C008046254606D5002FC3F1000302D57F42761E2D2599463846494601F011F90CA075
:205C2C00405CB7FBF9F7002F04F1010408F8010DF1D1A64205DD3021301B401E08F8011D3F
:205C4C00FBD10DB108F8015D4046BDE8F883C0463031323334353637383961626364656642
:205C6C0000007047B0B5ADF1400D02F02DFF044600213C220823684602F0AEFE11484168B1
:205C8C0006918168006804900F480068002205900E480891694602F09BFE071C0DD002F0EB
:205CAC00B9FA0546384600F059FD30B1284602F023FC204602F0FCFE01E000F035FC10B0A2
:205CCC00B0BDC046148B0000540C00206986000030B5401E4FF00004ADF12C0D0AD0401EA2
:205CEC0004D0401E20D1FDF7BBFA1DE000F0C4FA044619E001A821462422082302F0B0FEBD
:205D0C0006940D4DADF8144009490794012201AB05F1780002F0A0FE064A23462C2105F1D4
:205D2C009C00009302F0B4FE20460BB030BDC046E55E0000315A0000400B00202DE9F041F0
:205D4C0006467568B46802F0CFFEA96B21B30027AF6302F0C5FE2168886B20F4FA60886388
:205D6C000F49086820F40070086002F0BDFE0D4C8046207818B1022001F078FD2770404691
:205D8C0002F0AEFE686B296BEB68091A29636A6B30469847BDE8F08102F0A2FEBDE8F08108
:205DAC0030100040481C0020164880B507683FB315498B6803EA5300C00E21D2134A1068B8
:205DCC0080081DD2486880081AD21068096810F0050F4FEA114101F0F00101F5E0710AD190
:205DEC00B9420DD2190F38BF40F00100D90E38BF40F0040003E0B94202D920F0050010601D
:205E0C0080BDC04628500940AC3F005000000940F8B5844640F6FF741CF8013B002210E06C
:205E2C00481B401E10F8015B7F1E01F8015BF9D103E01CF8010B01F8010B521C5B08082A6A
:205E4C00EADA5808F5D21CF8010B1CF8015B05F00F07FF1CC5F30315122F45EA001508D167
:205E6C001CF8016B300A24BF1CF8010B60F3DF16F719AC42D4D1F8BDD0B5044602F0E0FD1B
:205E8C0000F06CFC071C08BF6FF002041FD002F0C1F90146A2880F480023243030F80C6FD2
:205EAC005EB902804760A26882602373786820610024084602F020FB09E0964208BF6FF04D
:205ECC000204F6D05B1C062BE8D300F02DFB2046D0BDC0466C0C00201648144A144908B508
:205EEC00E4300078801E0A2807D8DFE800F01814100614100614100609C002F0A9FD11E0BC
:205F0C0010688008FCD250688008FCD20AE008688008FCD306E008688008FCD202E01068E2
:205F2C008008FCD3FDF79CF908BDC04634600C4038600C40400B0020FEB5064614460D46CF
:205F4C00082002F01BF813494F6A00B306803E4685700823042244600746ADF800300C25F9
:205F6C00ADF802208C6A0195684601F007FC58B9029949B18F60204602F026FD16B13046D3
:205F8C0002F076FD0120FEBD384602F0C1F90020FEBDC04608020020134910B50A684BF2AF
:205FAC00F5214843040AC2F38140012806D101F095FE00F0E3FF604304EB90540C4901F19D
:205FCC00E500007830B90948006820F07F402418640802E0002081F8E50006480460210C00
:205FEC0041600123836010BDB43F005010200940400B00203C600C40B0B5044602F038FC3C
:20600C0030F0010008BF6FF004041ED002F018FD054602F0FFF801460D480622403030F8A0
:20602C000C7F6FB1A388BB4208D1406800680022854208BF0122A260002403E0521EEED18D
:20604C004FF0FF34084602F057FA2046B0BDC046500C002008B5012002F050F801281DD0AE
:20606C000F4834210122002300F06AFE002808BF002014D00B48006801F080FE02F078F94A
:20608C000A4A93681168D060C01A074BA1EB91014343180C884228BF011C1160012008BDE3
:2060AC0000A00C408000001040420F00101C002098B5154B1B1D18680004070C21D001F01D
:2060CC000DFE104991F90720824205DD10F1800FB8BF6FF07F00C8718C88BC4210D80A686F
:2060EC00D3F8D40F801A801C1F2888BF1F203F1B4008C7404FF6FF70E719B84238BF071C72
:20610C008F8098BD3C1C002030100940F8B5074602F0EAFC124C06462079E0B1401EC0B298
:20612C002071C0B904F1C800082102F0CDF997B1E068703001F086FFE0680A4DC0683F1AE5
:20614C00286804F1A405B7FBF0F1284602F0C4FC284602F0BDFC304602F0C2FCF8BDC04658
:20616C0010090020DC8E00001549096821280ADC212819D00C380FD00D380FD0001F0FD0FB
:20618C00C01E0FD01AE0253810D0001F10D0401E10D0401E10D011E0086870474868704705
:2061AC0088687047C8687047086970474869704788697047C8697047086A70470020704725
:2061CC00F0010020F8B50646B08815460F46FFF70FF90446002D02D4281B0A2806DB336885
:2061EC00291B38460BA200F047FD0419B08978B1002D06D4B06802F0E9F9291B401D884213
:20620C0006DCB368291B384603A200F035FD04192046F8BD257000C0282725732729000028
:20622C0038B50C4620B141680122A240114201D1022038BD914341600D480025231800EB43
:20624C008401C1F8945003F140010978FF291ABF406850F8211044F020410648FEF716FD4D
:20626C0020464FF0FF3101F057FF284638BDC04694190020007FC76738B5134D95F8E10058
:20628C00002410B91148007860B102F02DFC95F8E310002906BF012185F8E310012402F0F1
:2062AC001FFC0CB1002038BD022001F0F7FA0E20FEF752FA01F0D6FD01280EBF0120002077
:2062CC0085F8E20038BDC046400B00208A8E000010B502F009FC124C611C097829B10F498B
:2062EC000C6802F0FDFB204610BD02F0F9FB02F045F90C4A002302F0BFF8A26C0023140084
:20630C001B184FF07A024FF0905044EB0104C11842EB04021046001C10BDC0460430044067
:20632C001009002000093D000246F8B5084611464C6820381CD0401E17D0401E18BF6FF067
:20634C00010019D18D6802F0CFFB0C4E07463068016928688847B0F1FF3FF8D10025384642
:20636C00A56302F0BDFB2846F8BD0021084601E00121002084F82D10F8BDC046D001001055
:20638C00D0B5044602F05CFB01F028FA061C08BF6FF004001DD001F03DFFB168002908BF57
:2063AC00002709D051F80C2C0023B2600F4641F80C3CFF2601F8026C02F09EF8A7603FB13A
:2063CC0017F8080C207117F8070CA0710020D0BD0220D0BD012838B51ED1012001F08EFECB
:2063EC0001281BD001F0DCFF0D4D0E480122322305F1E00100680A70B3FBF0F404B9144627
:20640C003035284601F01EFE2846214602F064FB284602F05DFB01E000F0E6FF002038BDE7
:20642C00400B0020DC8E0000084610B500F0005100F00400084317D0012001F05FFE0E4C38
:20644C0001280CD0094909686C3432222046B2FBF1F102F041FB204602F03AFB10BD0448AB
:20646C0002F0AAF90348046010BDC046DC8E0000391F0000001004404809002038B512482B
:20648C00104C0168114D0C40E1430160A10908D34068800905D328464FF40051C83002F082
:2064AC0013F814F4602F0BD0284600F19C010A6804F46024FC3014430C60002102F004F86B
:2064CC0038BDC04620000E00081004401009002098B5044602F008FB8446104890F8A31009
:2064EC00C90803D390F8A210A14213D0B0F8A0300B4F012202FA04F11943A0F8A010391D09
:20650C000B6804F10C07BA4093430B600F680FB900210170604602F0E3FA98BD10090020E5
:20652C000810044000BF704708B5FFF7FBFFFEE738B50D4C0546A06820B10C48B0F1FF3F4E
:20654C0000D080470A4800688047606810B1014628468847206800B180470648006880478D
:20656C00FFF7E2FF38BDC046580F0020FFFFFFFF780F00207C0F0020DCB5044602F060FA41
:20658C0001F02CF9064602F073F930F0010014BF002E6FF0040017D0606858B1B0F1FF3F13
:2065AC0005D0694601F002F930B107460BE04FF0FF3000E0002000907068009902F05CFA8F
:2065CC00002700B901273846DCBDFEE7202101704FF42B714180032101710A4981604FF050
:2065EC00FF3282620849C1600849016108494161084981610849C16100210162416280F81D
:20660C002C1070470C8B0110308B0110548B0110788B01109C8B0110C08B0110F8B5044678
:20662C0002F00EFA00F09AF8071C19D001F0F2FD84460D480021243030F80C6F6EB94FF643
:20664C00F872028047600025856021717868A060604601F051FF2846F8BD491C0629EBD3C3
:20666C00FFF762FFF8BDC0466C0C0020F8B516460C4602F039FA02460F484178832554B1DF
:20668C00641E02D0641E10D00DE08179012904D0B0F8A01005E0876A0FB9802506E0806AE8
:2066AC00818B318002E0032500E03170104602F017FA2846F8BDC04610090020114990B52C
:2066CC0004461122ADF1140D6846FEF77BFC0E48A41D302106270170821C7821417014F85E
:2066EC00011D09111DF8011002F8011B217801F00F011DF801107F1E02F8011BEFD105B032
:20670C0090BDC0466A8E0000241C00202DE998430446276E9946904607B1B8470020022143
:20672C0000EA090001EA0801002808BF00290BD104F1580090E8060008EA010109EA0200BE
:20674C00002808BF002907D004F1680080E8000304F1380002F08CF9BDE898832DE9F843C1
